S00F000041544D5F4543552E73726563F7
S11300000C942A000C9447000C9447000C9447006D
S11300100C9447000C9447000C9447000C94470040
S11300200C9447000C9447000C9447000C94470030
S11300300C9447000C9447000C9447000C94470020
S11300400C9447000C9447000C9447000C94470010
S11300500C94470011241FBECFE5D8E0DEBFCDBF0E
S113006011E0A0E6B0E0EAE8F4E102C005900D92E8
S1130070AE3AB107D9F721E0AEEAB1E001C01D9272
S1130080A93BB207E1F70E94FC050C94430A0C94C7
S1130090000060E080E00E941B030E943E030E9477
S11300A04A0341E060E081E00E94090640E060E02C
S11300B081E00E9488060E94BB070E947F070E947D
S11300C050030E94A30464E170E080E090E00E9489
S11300D0E20760E082E690E00E94560583ED90E03E
S11300E00E942B0564EF71E080E090E00E94E2073B
S11300F081E00E945A0464E170E080E090E00E9494
S1130100E20761E080E00E943E0585EE90E00E94F7
S11301102B0540EB51E060E080E00E941F038091DA
S1130120B0018823B1F381E00E945A0464E170E0D5
S113013080E090E00E94E207089581E00E945A0462
S113014064E170E080E090E00E94E20760E080E01B
S11301500E943E0583EF90E00E942B051092B801A7
S113016025C083EB91E00E9498038130D1F3609124
S1130170B8016C5F81E00E943E058AE20E94E404BB
S1130180E091B801F0E0E659FF4F8091B30180831C
S113019068EC70E080E090E00E94E20781E08093E8
S11301A061008091B8018F5F8093B8018091B8019C
S11301B08430B8F282EB91E00E94980368EE73E019
S11301C080E090E00E94E20782EB91E00E949803B5
S11301D08091B201803371F7089541E060E081E0DD
S11301E00E9488066EE170E080E090E00E94E207E1
S11301F083E890E00E94A6076EE170E080E090E062
S11302000E94E2078FE690E00E94A60768EC70E087
S113021080E090E00E94E20781E00E945A0464E1D9
S113022070E080E090E00E94E20783E890E00E94A2
S11302302B0564EF71E080E090E00E94E20781E02A
S11302408093600045C06AE670E083E890E00E9415
S11302503A0A80936000882309F442C081E00E9436
S11302605A0464E170E080E090E00E94E20760E0FC
S113027080E00E943E0582E091E00E942B0564EF3D
S113028071E080E090E00E94E20781E00E945A045D
S113029064E170E080E090E00E94E2070E949D002B
S11302A08091B1018F5F8093B101823088F00E9408
S11302B0440364EF71E080E090E00E94E2070E9452
S11302C04A0364EF71E080E090E00E94E207EFCF20
S11302D08091B101823020F4809160008111B3CF0C
S11302E008950F931F93CF93DF9381E00E945A04E4
S11302F064E170E080E090E00E94E20784E191E034
S11303000E942B0568EC70E080E090E00E94E20718
S113031062E081E00E943E051092B801C8EED3E08D
S113032000E010E045C091E09093B301843039F4CB
S11303308EE20E94E40481E08093610034C083EB88
S113034091E00E9498038130D1F368EC70E080E082
S113035090E00E94E2078091B3010E94E40480913E
S1130360B8018430C8F48091B30190E0C0978C9FA9
S113037090018D9F300D9C9F300D1124020F131F8F
S11303809E01ADECBCEC0E94090AEC01D695C79520
S1130390D695C795D695C7951093AF010093AE0136
S11303A081E0809361008091B8018F5F8093B801F0
S11303B08091B801873008F4B6CF62E370E080E042
S11303C090E00E94E207DF91CF911F910F91089571
S11303D0CF92DF92EF92FF920F931F93CF93DF930D
S11303E081E0C0E00DC029E1C29FC00111246FE685
S11303F070E083579F4F0E943A0A882321F0CF5F11
S1130400C33088F3C0E08111EBC0D0E089E18C9F58
S1130410F0018D9FF00D1124E857FF4F8481811165
S113042014C00E94440381E00E945A0464E170E015
S113043080E090E00E94E20760E080E00E943E05D8
S113044085E291E00E942B05EDC089E18C9FF001CB
S11304508D9FF00D1124E857FF4FC080D180E280BA
S1130460F3800091AE011091AF01B80180E090E0FB
S11304700E9438099B01AC01C701B6010E948B0898
S11304808823D4F481E00E945A0464E170E080E09F
S113049090E00E94E20761E080E00E943E0584E370
S11304A091E00E942B0563E081E00E943E0582E416
S11304B091E00E942B05B6C00938134100F181E098
S11304C00E945A0464E170E080E090E00E94E20738
S11304D060E080E00E943E0587E491E00E942B05E5
S11304E060E081E00E943E0588E591E00E942B05D2
S11304F068EE73E080E090E00E94E20793C081E040
S11305000E945A0464E170E080E090E00E94E207F7
S113051063E080E00E943E0588E691E00E942B059E
S113052063E081E00E943E0581E791E00E942B0593
S113053068EE73E080E090E00E94E20781E00E94B0
S11305405A0464E170E080E090E00E94E20729E14F
S11305502C9FC0012D9F900D1124EC01C857DF4F33
S11305606091AE017091AF0180E090E00E94380983
S11305709B01AC01688179818A819B810E941E085C
S1130580688379838A839B8360E080E00E943E05D0
S11305908DE791E00E942B0564E081E00E943E0516
S11305A0688179818A819B810E9402090E94710578
S11305B068EE73E080E090E00E94E20781E00E9430
S11305C05A0464E170E080E090E00E94E20760E099
S11305D080E00E943E058BE891E00E942B0522C03A
S11305E00E94440381E00E945A0464E170E080E0C8
S11305F090E00E94E20760E080E00E943E0589E905
S113060091E00E942B0560E081E00E943E0583EAB0
S113061091E00E942B056FE080E00E943E0580E09F
S11306200E94E404DF91CF911F910F91FF90EF900E
S1130630DF90CF90089540E00E94090608950F933B
S11306401F93CF93DF931F92CDB7DEB78A01198230
S1130650AE014F5F5F4F0E940707811105C089817A
S1130660F801808381E004C08981F801808380E0FF
S11306700F90DF91CF911F910F91089541E063E0B6
S113068081E00E940906089541E063E081E00E9450
S11306908806089540E063E081E00E94880608959A
S11306A041E062E082E00E94090641E063E082E00A
S11306B00E94090641E064E082E00E94090641E0EC
S11306C060E083E00E94090640E065E082E00E9469
S11306D0090640E066E082E00E94090640E067E027
S11306E082E00E94090641E062E082E00E948806FE
S11306F041E063E082E00E94880641E064E082E039
S11307000E94880641E060E083E00E94880641E0A0
S113071065E082E00E94880641E066E082E00E9493
S1130720880641E067E082E00E94880680E0089540
S1130730EF92FF920F931F93CF93DF93CDB7DEB762
S113074027970FB6F894DEBF0FBECDBF7C01198288
S11307501A821B821C8282E0898383E08A8384E07C
S11307608B8385E08D8386E08E8387E08F8300E032
S113077090C0033039F440E060E083E00E948806D2
S113078010E072C0E1E0F0E0EC0FFD1FE00FF11D9E
S113079040E0608182E00E948806F2CFE5E0F0E06C
S11307A0EC0FFD1FE10FF11DA701608182E00E94A3
S11307B00707F7018081811156C0011111C0111181
S11307C003C081E380833BC0113021F482E3F7014D
S11307D0808335C0123099F583E3F70180832FC0FD
S11307E0013091F4111104C084E3F701808327C020
S11307F0113021F485E3F701808321C01230F9F42C
S113080086E3F70180831BC0023091F4111104C008
S113081087E3F701808313C0113021F488E3F701E3
S113082080830DC0123059F489E3F701808307C037
S1130830033029F4111103C080E3F70180830330EE
S113084031F460E083E00E94450780E026C0E1E0E7
S1130850F0E0EC0FFD1FE00FF11D608182E00E94CB
S1130860450780E01AC01F5F133008F497CF0330A8
S113087029F460E083E00E9445070AC0E1E0F0E06B
S1130880EC0FFD1FE00FF11D608182E00E9445071F
S11308900F5F043008F46DCF81E027960FB6F8940B
S11308A0DEBF0FBECDBFDF91CF911F910F91FF909F
S11308B0EF900895CF93C82F0E94BB0740E061E0FA
S11308C080E00E94880640E062E080E00E948806A2
S11308D040E063E080E00E9488068BB39C2F907F09
S11308E08F70892B8BBB41E063E080E00E94880617
S11308F061E070E080E090E00E94E20740E063E0A5
S113090080E00E94880620E1C29FC00111249BB3AD
S11309109F70892B8BBB41E063E080E00E948806D6
S113092061E070E080E090E00E94E20740E063E074
S113093080E00E94880665E070E080E090E00E941C
S1130940E207CF9108950E94BB0741E061E080E097
S11309500E94090641E062E080E00E94090641E04D
S113096063E080E00E94090641E064E080E00E94C8
S1130970090641E065E080E00E94090641E066E086
S113098080E00E94090641E067E080E00E940906D9
S113099064E170E080E090E00E94E20783E30E945B
S11309A05A0482E30E945A0488E20E945A048CE0AA
S11309B00E945A0486E00E945A0482E00E945A046B
S11309C081E00E945A040895CF93C82F41E061E06A
S11309D080E00E94880640E062E080E00E94880691
S11309E040E063E080E00E9488068BB39C2F907FF8
S11309F08F70892B8BBB41E063E080E00E94880606
S1130A0061E070E080E090E00E94E20740E063E093
S1130A1080E00E94880620E1C29FC00111249BB39C
S1130A209F70892B8BBB41E063E080E00E948806C5
S1130A3061E070E080E090E00E94E20740E063E063
S1130A4080E00E94880665E070E080E090E00E940B
S1130A50E207CF9108950F931F93CF938C01C0E0C9
S1130A6003C00E94E404CF5FF801EC0FF11D808104
S1130A708111F7CFCF911F910F910895CF93DF93F9
S1130A8000D0CDB7DEB790E8998390EC9A83E1E08B
S1130A90F0E0EC0FFD1FE80FF11D8081860F0E942E
S1130AA05A040F900F90DF91CF9108950F931F93E5
S1130AB0CF938C01862F90E00896880F880F880FBB
S1130AC00E945A04C0E007C0F801EC0FF11D8081B8
S1130AD00E94E404CF5FC830B8F3CF911F910F9107
S1130AE008951F93CF93DF93CDB7DEB72A970FB640
S1130AF0F894DEBF0FBECDBF9923DCF590958095A9
S1130B00709561957F4F8F4F9F4F10E013C02AE07F
S1130B1030E040E050E00E94EA09E1E0F0E0EC0F50
S1130B20FD1FE10FF11D605D6083622F732F842F21
S1130B30952F1F5F161617061806190644F3E1E0F1
S1130B40F0E0EC0FFD1FE10FF11D8DE280831F5FCC
S1130B500DC0E12FF0E0319781E090E08C0F9D1FF4
S1130B60E80FF91F80810E94E40411501111F1CFA4
S1130B7039C0611571058105910521F480E30E9456
S1130B80E40430C01616170618061906ACF02AC07D
S1130B902AE030E040E050E00E94EA09E1E0F0E0C1
S1130BA0EC0FFD1FE10FF11D605D6083622F732F59
S1130BB0842F952F1F5F01C010E016161706180624
S1130BC0190634F30DC0E12FF0E0319781E090E095
S1130BD08C0F9D1FE80FF91F80810E94E4041150BF
S1130BE01111F1CF2A960FB6F894DEBF0FBECDBF18
S1130BF0DF91CF911F9108950E9449000E949D00AA
S1130C000E94ED000E9471010E94E80180E090E0E2
S1130C100895442319F04130E9F174C0813099F00A
S1130C2028F08230E9F0833041F16EC02AB381E0CC
S1130C3090E002C0880F991F6A95E2F7809582239D
S1130C408ABB80E0089527B381E090E002C0880F5A
S1130C50991F6A95E2F78095822387BB80E0089507
S1130C6024B381E090E002C0880F991F6A95E2F7EF
S1130C708095822384BB80E0089521B381E090E0D5
S1130C8002C0880F991F6A95E2F78095822381BB81
S1130C9080E00895813091F028F08230D9F08330DB
S1130CA029F134C02AB381E090E002C0880F991F73
S1130CB06A95E2F7822B8ABB80E0089527B381E02E
S1130CC090E002C0880F991F6A95E2F7822B87BBD8
S1130CD080E0089524B381E090E002C0880F991F5A
S1130CE06A95E2F7822B84BB80E0089521B381E00A
S1130CF090E002C0880F991F6A95E2F7822B81BBAE
S1130D0080E0089581E0089581E0089581E00895E8
S1130D10442319F04130E9F174C0813099F028F08E
S1130D208230E9F0833041F16EC02BB381E090E072
S1130D3002C0880F991F6A95E2F7809582238BBBC6
S1130D4080E0089528B381E090E002C0880F991FE5
S1130D506A95E2F78095822388BB80E0089525B3E5
S1130D6081E090E002C0880F991F6A95E2F78095B0
S1130D70822385BB80E0089522B381E090E002C025
S1130D80880F991F6A95E2F78095822382BB80E0E1
S1130D900895813091F028F08230D9F0833029F120
S1130DA034C02BB381E090E002C0880F991F6A958C
S1130DB0E2F7822B8BBB80E0089528B381E090E0BA
S1130DC002C0880F991F6A95E2F7822B88BB80E0E6
S1130DD0089525B381E090E002C0880F991F6A95B9
S1130DE0E2F7822B85BB80E0089522B381E090E096
S1130DF002C0880F991F6A95E2F7822B82BB80E0BC
S1130E00089581E0089581E0089581E00895813096
S1130E1099F028F08230E9F0833041F134C089B38D
S1130E2090E002C0959587956A95E2F7817089BB39
S1130E30FA01808380E0089586B390E002C095951E
S1130E4087956A95E2F7817086BBFA01808380E01A
S1130E50089583B390E002C0959587956A95E2F76B
S1130E60817083BBFA01808380E0089580B390E0B1
S1130E7002C0959587956A95E2F7817080BBFA0167
S1130E80808380E0089581E00895813091F028F016
S1130E908230D9F0833029F130C02BB381E090E067
S1130EA002C0880F991F6A95E2F782278BBB80E006
S1130EB0089528B381E090E002C0880F991F6A95D5
S1130EC0E2F7822788BB80E0089525B381E090E0B3
S1130ED002C0880F991F6A95E2F7822785BB80E0DC
S1130EE0089522B381E090E002C0880F991F6A95AB
S1130EF0E2F7822782BB80E0089581E0089540E014
S1130F0064E081E00E94090640E065E081E00E941F
S1130F10090641E066E081E00E94090640E067E0DE
S1130F2081E00E9409068DB180648DB98DB18F7EF8
S1130F308DB98DB1877F8DB98DB18B7F8DB90895B2
S1130F40779BFECF2FB1FC01208308950F931F934D
S1130F50CF938C01C0E003C00E94A007CF5FC801FB
S1130F608C0F911DFC0120812111F6CF1082CF91AD
S1130F701F910F91089583B78F7783BF83B78F7BBA
S1130F8083BF83B7877F83BF83B78F7E83BF83B7D6
S1130F908F7D83BF80E0089583B7816083BF83B76B
S1130FA08D7F83BF83B7846083BF80E0089583B758
S1130FB08E7F83BF83B78D7F83BF83B78B7F83BFD0
S1130FC080E008950E9438092FE632E143E851E4B5
S1130FD00E9490080E9409096093B4017093B501BE
S1130FE08093B6019093B70112BE0E94CC0740E0F3
S1130FF050E0BA010AC008B600FEFDCF88B7816090
S113100088BF4F5F5F4F6F4F7F4F8091B4019091C6
S1131010B501A091B601B091B701481759076A0705
S11310207B0748F31092B4011092B5011092B601F7
S11310301092B7010E94D70780E008955058BB274B
S1131040AA270E9436080C94B0090E94A20938F01D
S11310500E94A90920F039F49F3F19F426F40C9456
S11310609F090EF4E095E7FB0C949909E92F0E947F
S1131070C10958F3BA17620773078407950720F06C
S113108079F4A6F50C94E3090EF4E0950B2EBA2F2F
S1131090A02D0B01B90190010C01CA01A00111247A
S11310A0FF27591B99F0593F50F4503E68F11A1626
S11310B0F040A22F232F342F4427585FF3CF4695B7
S11310C037952795A795F0405395C9F77EF41F16D9
S11310D0BA0B620B730B840BBAF09150A1F0FF0FA3
S11310E0BB1F661F771F881FC2F70EC0BA0F621F8F
S11310F0731F841F48F4879577956795B795F7957F
S11311009E3F08F0B0CF9395880F08F09927EE0F13
S11311109795879508950E94750908F481E00895CC
S11311200E94A4080C94B0090E94A90958F00E94D6
S1131130A20940F029F45F3F29F00C949909511158
S11311400C94E4090C949F090E94C10968F3992343
S1131150B1F3552391F3951B550BBB27AA276217AF
S11311607307840738F09F5F5F4F220F331F441FBC
S1131170AA1FA9F335D00E2E3AF0E0E832D09150F0
S11311805040E695001CCAF72BD0FE2F29D0660FDD
S1131190771F881FBB1F261737074807AB07B0E820
S11311A009F0BB0B802DBF01FF2793585F4F3AF026
S11311B09E3F510578F00C9499090C94E4095F3F23
S11311C0E4F3983ED4F3869577956795B795F795AC
S11311D09F5FC9F7880F911D9695879597F9089594
S11311E0E1E0660F771F881FBB1F62177307840730
S11311F0BA0720F0621B730B840BBA0BEE1F88F73F
S1131200E09508950E9409096894B1110C94E409C9
S113121008950E94C90988F09F5798F0B92F99271B
S1131220B751B0F0E1F0660F771F881F991F1AF0CD
S1131230BA95C9F714C0B13091F00E94E309B1E046
S113124008950C94E309672F782F8827B85F39F045
S1131250B93FCCF3869577956795B395D9F73EF466
S113126090958095709561957F4F8F4F9F4F08950E
S1131270E89409C097FB3EF490958095709561952C
S11312807F4F8F4F9F4F9923A9F0F92F96E9BB27E2
S11312909395F695879577956795B795F111F8CF5E
S11312A0FAF4BB0F11F460FF1BC06F5F7F4F8F4FC9
S11312B09F4F16C0882311F096E911C0772321F0BF
S11312C09EE8872F762F05C0662371F096E8862F57
S11312D070E060E02AF09A95660F771F881FDAF7AE
S11312E0880F9695879597F90895990F0008550FDB
S11312F0AA0BE0E8FEEF16161706E807F907C0F098
S113130012161306E407F50798F0621B730B840B9F
S1131310950B39F40A2661F0232B242B252B21F479
S113132008950A2609F4A140A6958FEF811D811D19
S1131330089597F99F6780E870E060E008959FEF53
S113134080EC089500240A94161617061806090658
S1131350089500240A941216130614060506089527
S1131360092E0394000C11F4882352F0BB0F40F4AF
S1131370BF2B11F460FF04C06F5F7F4F8F4F9F4FEF
S1131380089557FD9058440F551F59F05F3F71F071
S11313904795880F97FB991F61F09F3F79F08795D8
S11313A00895121613061406551FF2CF4695F1DF61
S11313B008C0161617061806991FF1CF86957105F1
S11313C0610508940895E894BB2766277727CB0125
S11313D097F90895052E97FB1EF400940E94010AC4
S11313E057FD07D00E94180A07FC03D04EF40C9452
S11313F0010A50954095309521953F4F4F4F5F4FCF
S1131400089590958095709561957F4F8F4F9F4F6C
S11314100895A29FB001B39FC001A39F700D811DC9
S11314201124911DB29F700D811D1124911D0895E9
S1131430A1E21A2EAA1BBB1BFD010DC0AA1FBB1FD4
S1131440EE1FFF1FA217B307E407F50720F0A21B46
S1131450B30BE40BF50B661F771F881F991F1A94B3
S113146069F760957095809590959B01AC01BD01DD
S1131470CF010895FB01DC018D91019080190110C9
S10D1480D9F3990B0895F894FFCFF7
S113148A0101040E0E0E1F0004003030303000300B
S113149A303030303030303030303030303030303E
S11314AA303000303030300000401C4600313233D6
S11314BA34353637383930313233323134353637D8
S11314CA0000401C4601313233343536373839305E
S11314DA3132333435363738390000A00C460131FD
S11314EA30303133353536373832303039373635AE
S11314FA3132002057454C434F4D4520544F20412B
S113150A544D202100496E73657274204120436151
S113151A726400456E74657220596F757220504961
S113152A4E0050494E204E4F54204D415443484595
S113153A44202100454E5445522054484520414DEB
S113154A4F554E5400434152442049532053544F5B
S113155A4C454E00494E53554646494349454E5417
S113156A200046554E44004D4158205452414E5392
S113157A414354494F4E2000414D4F554E54204546
S113158A5843454544454400415050524F564544FA
S113159A005452414E53414354494F4E004E45570D
S11315AA2042414C414E4345203A00454A45435462
S11315BA494E472043415244005448495320495311
S11115CA204100465241554420434152440002
S9030000FC
