:100000000C942A000C9447000C9447000C94470071
:100010000C9447000C9447000C9447000C94470044
:100020000C9447000C9447000C9447000C94470034
:100030000C9447000C9447000C9447000C94470024
:100040000C9447000C9447000C9447000C94470014
:100050000C94470011241FBECFE5D8E0DEBFCDBF12
:1000600010E0A0E6B0E0E4EFFDE002C005900D92E4
:10007000A23DB107D9F720E0A2EDB0E001C01D928A
:10008000AB3DB207E1F70E94A0030C94F8060C9474
:10009000000060E080E00E94770141E060E081E0E4
:1000A0000E94AB0340E060E081E00E942A040E94CD
:1000B0005D050E9421050E949A010E94ED0264E103
:1000C00070E080E090E00E94840580E890E00E946B
:1000D000750364EF71E080E090E00E94840581E0A8
:1000E0000E94A40264E170E080E090E00E94840538
:1000F00061E080E00E94880382E990E00E9475033D
:1001000042ED50E060E080E00E947B018091D200EF
:100110008823B1F381E00E94A40264E170E080E0F2
:1001200090E00E948405089581E00E94A40264E1A9
:1001300070E080E090E00E94840561E080E00E9431
:10014000880380EA90E00E9475031092DA0024C0D0
:1001500085ED90E00E94E2018130D1F36091DA00F8
:1001600081E00E9488038AE20E942E03E091DA0077
:10017000F0E0EE59FF4F8091D500808368EC70E08D
:1001800080E090E00E94840581E08093610080918E
:10019000DA008F5F8093DA008091DA008430C0F259
:1001A00084ED90E00E94E20168EE73E080E090E070
:1001B0000E94840584ED90E00E94E2018091D400C9
:1001C000803371F7089541E060E081E00E942A04E5
:1001D0008BE790E00E9448056EE170E080E090E0DF
:1001E0000E94840587E690E00E94480581E08093A4
:1001F000600031C062E670E08BE790E00E94EF069D
:1002000080936000882379F181E00E94A40264E178
:1002100070E080E090E00E94840560E080E00E9451
:1002200088038FEA90E00E94750364EF71E080E03C
:1002300090E00E94840581E00E94A40264E170E0E5
:1002400080E090E00E9484050E9494008091D30099
:100250008F5F8093D3008091D300833020F480910E
:1002600060008111C7CF089581E00E94A40264E17B
:1002700070E080E090E00E94840581EC90E00E94B4
:10028000750364E670E080E090E00E94840562E01F
:1002900081E00E9488031092DA0024C091E09093DC
:1002A000D500843039F48EE20E942E0381E08093E1
:1002B000610013C085ED90E00E94E2018130D1F32E
:1002C00068EC70E080E090E00E9484058091D500A9
:1002D0000E942E0381E0809361008091DA008F5F9D
:1002E0008093DA008091DA008730C0F2089540E010
:1002F0000E94AB0308950F931F93CF93DF931F9238
:10030000CDB7DEB78A011982AE014F5F5F4F0E9401
:10031000A904811105C08981F801808381E004C0AE
:100320008981F801808380E00F90DF91CF911F9148
:100330000F91089541E062E082E00E94AB0341E04A
:1003400063E082E00E94AB0341E064E082E00E944F
:10035000AB0341E060E083E00E94AB0340E065E076
:1003600082E00E94AB0340E066E082E00E94AB03C3
:1003700040E067E082E00E94AB0341E062E082E09F
:100380000E942A0441E063E082E00E942A0441E0E6
:1003900064E082E00E942A0441E060E083E00E9481
:1003A0002A0441E065E082E00E942A0441E066E020
:1003B00082E00E942A0441E067E082E00E942A0471
:1003C00080E00895EF92FF920F931F93CF93DF93F6
:1003D000CDB7DEB727970FB6F894DEBF0FBECDBFFF
:1003E0007C0119821A821B821C8282E0898383E04D
:1003F0008A8384E08B8385E08D8386E08E8387E02B
:100400008F8300E090C0033039F440E060E083E087
:100410000E942A0410E072C0E1E0F0E0EC0FFD1F42
:10042000E00FF11D40E0608182E00E942A04F2CFDB
:10043000E5E0F0E0EC0FFD1FE10FF11DA701608189
:1004400082E00E94A904F7018081811156C0011148
:1004500011C0111103C081E380833BC0113021F42E
:1004600082E3F701808335C0123099F583E3F70109
:1004700080832FC0013091F4111104C084E3F7018F
:10048000808327C0113021F485E3F701808321C0E8
:100490001230F9F486E3F70180831BC0023091F437
:1004A000111104C087E3F701808313C0113021F4D8
:1004B00088E3F70180830DC0123059F489E3F70116
:1004C000808307C0033029F4111103C080E3F701D2
:1004D0008083033031F460E083E00E94E70480E031
:1004E00026C0E1E0F0E0EC0FFD1FE00FF11D6081A0
:1004F00082E00E94E70480E01AC01F5F133008F416
:1005000097CF033029F460E083E00E94E7040AC03B
:10051000E1E0F0E0EC0FFD1FE00FF11D608182E0F3
:100520000E94E7040F5F043008F46DCF81E0279646
:100530000FB6F894DEBF0FBECDBFDF91CF911F91F4
:100540000F91FF90EF900895CF93C82F0E945D0503
:1005500040E061E080E00E942A0440E062E080E048
:100560000E942A0440E063E080E00E942A048BB3EA
:100570009C2F907F8F70892B8BBB41E063E080E0E4
:100580000E942A0461E070E080E090E00E9484050F
:1005900040E063E080E00E942A0420E1C29FC001A5
:1005A00011249BB39F70892B8BBB41E063E080E0FB
:1005B0000E942A0461E070E080E090E00E948405DF
:1005C00040E063E080E00E942A0465E070E080E0A3
:1005D00090E00E948405CF9108950E945D0541E05E
:1005E00061E080E00E94AB0341E062E080E00E94B5
:1005F000AB0341E063E080E00E94AB0341E064E0D4
:1006000080E00E94AB0341E065E080E00E94AB0324
:1006100041E066E080E00E94AB0341E067E080E0FB
:100620000E94AB0364E170E080E090E00E948405EA
:1006300083E30E94A40282E30E94A40288E20E9453
:10064000A4028CE00E94A40286E00E94A40282E040
:100650000E94A40281E00E94A4020895CF93C82FB3
:1006600041E061E080E00E942A0440E062E080E036
:100670000E942A0440E063E080E00E942A048BB3D9
:100680009C2F907F8F70892B8BBB41E063E080E0D3
:100690000E942A0461E070E080E090E00E948405FE
:1006A00040E063E080E00E942A0420E1C29FC00194
:1006B00011249BB39F70892B8BBB41E063E080E0EA
:1006C0000E942A0461E070E080E090E00E948405CE
:1006D00040E063E080E00E942A0465E070E080E092
:1006E00090E00E948405CF9108950F931F93CF93BC
:1006F0008C01C0E003C00E942E03CF5FF801EC0F15
:10070000F11D80818111F7CFCF911F910F91089535
:10071000CF93DF9300D0CDB7DEB790E8998390EC0C
:100720009A83E1E0F0E0EC0FFD1FE80FF11D8081FE
:10073000860F0E94A4020F900F90DF91CF91089531
:100740000E9449000E9494000E94E3000E9434012C
:1007500080E090E00895442319F04130E9F174C03D
:10076000813099F028F08230E9F0833041F16EC099
:100770002AB381E090E002C0880F991F6A95E2F7E2
:10078000809582238ABB80E0089527B381E090E0C2
:1007900002C0880F991F6A95E2F78095822387BB74
:1007A00080E0089524B381E090E002C0880F991F93
:1007B0006A95E2F78095822384BB80E0089521B397
:1007C00081E090E002C0880F991F6A95E2F780955A
:1007D000822381BB80E00895813091F028F082303F
:1007E000D9F0833029F134C02AB381E090E002C00F
:1007F000880F991F6A95E2F7822B8ABB80E00895E3
:1008000027B381E090E002C0880F991F6A95E2F754
:10081000822B87BB80E0089524B381E090E002C082
:10082000880F991F6A95E2F7822B84BB80E00895B8
:1008300021B381E090E002C0880F991F6A95E2F72A
:10084000822B81BB80E0089581E0089581E00895C6
:1008500081E00895442319F04130E9F174C08130FA
:1008600099F028F08230E9F0833041F16EC02BB36B
:1008700081E090E002C0880F991F6A95E2F78095A9
:1008800082238BBB80E0089528B381E090E002C012
:10089000880F991F6A95E2F78095822388BB80E0D4
:1008A000089525B381E090E002C0880F991F6A95F2
:1008B000E2F78095822385BB80E0089522B381E032
:1008C00090E002C0880F991F6A95E2F78095822315
:1008D00082BB80E00895813091F028F08230D9F019
:1008E000833029F134C02BB381E090E002C0880F3F
:1008F000991F6A95E2F7822B8BBB80E0089528B39D
:1009000081E090E002C0880F991F6A95E2F7822B80
:1009100088BB80E0089525B381E090E002C0880F95
:10092000991F6A95E2F7822B85BB80E0089522B378
:1009300081E090E002C0880F991F6A95E2F7822B50
:1009400082BB80E0089581E0089581E0089581E010
:100950000895813099F028F08230E9F0833041F138
:1009600034C089B390E002C0959587956A95E2F707
:10097000817089BBFA01808380E0089586B390E09E
:1009800002C0959587956A95E2F7817086BBFA015A
:10099000808380E0089583B390E002C095958795A9
:1009A0006A95E2F7817083BBFA01808380E0089545
:1009B00080B390E002C0959587956A95E2F78170C3
:1009C00080BBFA01808380E0089581E00895813042
:1009D00091F028F08230D9F0833029F130C02BB368
:1009E00081E090E002C0880F991F6A95E2F78227A4
:1009F0008BBB80E0089528B381E090E002C0880FAF
:100A0000991F6A95E2F7822788BB80E0089525B395
:100A100081E090E002C0880F991F6A95E2F7822773
:100A200085BB80E0089522B381E090E002C0880F8A
:100A3000991F6A95E2F7822782BB80E0089581E0E2
:100A4000089540E064E081E00E94AB0340E065E08F
:100A500081E00E94AB0341E066E081E00E94AB03CD
:100A600040E067E081E00E94AB038DB180648DB906
:100A70008DB18F7E8DB98DB1877F8DB98DB18B7F13
:100A80008DB90895779BFECF2FB1FC012083089587
:100A90000F931F93CF938C01C0E003C00E944205C7
:100AA000CF5FC8018C0F911DFC0120812111F6CF71
:100AB0001082CF911F910F91089583B78F7783BFD5
:100AC00083B78F7B83BF83B7877F83BF83B78F7ED7
:100AD00083BF83B78F7D83BF80E0089583B7816034
:100AE00083BF83B78D7F83BF83B7846083BF80E07C
:100AF000089583B78E7F83BF83B78D7F83BF83B70E
:100B00008B7F83BF80E008950E9461062FE632E16B
:100B100043E851E40E94C0050E9432066093D6006B
:100B20007093D7008093D8009093D90012BE0E9492
:100B30006E0540E050E0BA010AC008B600FEFDCFE5
:100B400088B7816088BF4F5F5F4F6F4F7F4F809145
:100B5000D6009091D700A091D800B091D900481745
:100B600059076A077B0748F31092D6001092D70006
:100B70001092D8001092D9000E94790580E0089563
:100B80000E94D4050C94B5060E94AE0658F00E944F
:100B9000A70640F029F45F3F29F00C949E065111FE
:100BA0000C94E9060C94A4060E94C60668F39923E7
:100BB000B1F3552391F3951B550BBB27AA27621759
:100BC0007307840738F09F5F5F4F220F331F441F66
:100BD000AA1FA9F335D00E2E3AF0E0E832D091509A
:100BE0005040E695001CCAF72BD0FE2F29D0660F87
:100BF000771F881FBB1F261737074807AB07B0E8CA
:100C000009F0BB0B802DBF01FF2793585F4F3AF0CF
:100C10009E3F510578F00C949E060C94E9065F3FC8
:100C2000E4F3983ED4F3869577956795B795F79555
:100C30009F5FC9F7880F911D9695879597F908953D
:100C4000E1E0660F771F881FBB1F621773078407D9
:100C5000BA0720F0621B730B840BBA0BEE1F88F7E8
:100C6000E09508950E94CE0688F09F5798F0B92F1E
:100C70009927B751B0F0E1F0660F771F881F991FD1
:100C80001AF0BA95C9F714C0B13091F00E94E80685
:100C9000B1E008950C94E806672F782F8827B85F95
:100CA00039F0B93FCCF3869577956795B395D9F729
:100CB0003EF490958095709561957F4F8F4F9F4F33
:100CC0000895E89409C097FB3EF49095809570953F
:100CD00061957F4F8F4F9F4F9923A9F0F92F96E988
:100CE000BB279395F695879577956795B795F111FD
:100CF000F8CFFAF4BB0F11F460FF1BC06F5F7F4F9A
:100D00008F4F9F4F16C0882311F096E911C07723AB
:100D100021F09EE8872F762F05C0662371F096E8B4
:100D2000862F70E060E02AF09A95660F771F881F83
:100D3000DAF7880F9695879597F9089597F99F6741
:100D400080E870E060E008959FEF80EC0895002453
:100D50000A941616170618060906089500240A9420
:100D600012161306140605060895092E0394000CA6
:100D700011F4882352F0BB0F40F4BF2B11F460FF35
:100D800004C06F5F7F4F8F4F9F4F089557FD90585E
:100D9000440F551F59F05F3F71F04795880F97FB3F
:100DA000991F61F09F3F79F08795089512161306F9
:100DB0001406551FF2CF4695F1DF08C01616170628
:100DC0001806991FF1CF869571056105089408955D
:100DD000E894BB2766277727CB0197F90895FB0195
:100DE000DC018D91019080190110D9F3990B0895C0
:040DF000F894FFCFA5
:100DF400010130303030003030303030303030307D
:100E0400303030303030303030300030303030003E
:100E14002057454C434F4D4520544F2041544D20BD
:100E24002100496E7365727420412043617264002D
:100E3400456E74657220596F75722050494E00508A
:100E4400494E204E4F54204D41544348454420219F
:100E540000454E5445522054484520414D4F554E6F
:020E6400540038
:00000001FF
