S00F000041544D5F4543552E73726563F7
S11300000C942A000C9447000C9447000C9447006D
S11300100C9447000C9447000C9447000C94470040
S11300200C9447000C9447000C9447000C94470030
S11300300C9447000C9447000C9447000C94470020
S11300400C9447000C9447000C9447000C94470010
S11300500C94470011241FBECFE5D8E0DEBFCDBF0E
S113006011E0A0E6B0E0ECE4F4E102C005900D92EA
S1130070AE3AB107D9F721E0AEEAB1E001C01D9272
S1130080A93BB207E1F70E94DD050C94240A0C9405
S1130090000060E080E00E94FC020E941F030E94B6
S11300A02B0341E060E081E00E94EA0540E060E06B
S11300B081E00E9469060E949C070E9460070E94DA
S11300C031030E94840464E170E080E090E00E94C7
S11300D0C30760E082E690E00E94370583ED90E07C
S11300E00E940C0564EF71E080E090E00E94C30779
S11300F081E00E943B0464E170E080E090E00E94B3
S1130100C30761E080E00E941F0585EE90E00E9435
S11301100C0540EB51E060E080E00E940003809118
S1130120B0018823B1F381E00E943B0464E170E0F4
S113013080E090E00E94C307089581E00E943B04A0
S113014064E170E080E090E00E94C30760E080E03A
S11301500E941F0583EF90E00E940C051092B801E5
S113016025C083EB91E00E9479038130D1F3609143
S1130170B8016C5F81E00E941F058AE20E94C504F9
S1130180E091B801F0E0E659FF4F8091B30180831C
S113019068EC70E080E090E00E94C30781E0809307
S11301A061008091B8018F5F8093B8018091B8019C
S11301B08430B8F282EB91E00E94790368EE73E038
S11301C080E090E00E94C30782EB91E00E947903F3
S11301D08091B201803371F7089541E060E081E0DD
S11301E00E94690683E890E00E9487076EE170E050
S11301F080E090E00E94C3078FE690E00E948707AA
S113020081E08093600045C06AE670E083E890E096
S11302100E941B0A80936000882309F442C081E095
S11302200E943B0464E170E080E090E00E94C30718
S113023060E080E00E941F0582E091E00E940C05CE
S113024064EF71E080E090E00E94C30781E00E94C7
S11302503B0464E170E080E090E00E94C3070E94E8
S11302609D008091B1018F5F8093B101823088F04D
S11302700E94250364EF71E080E090E00E94C307D0
S11302800E942B0364EF71E080E090E00E94C307BA
S1130290EFCF8091B101823020F480916000811110
S11302A0B3CF08950F931F93CF93DF9381E00E9400
S11302B03B0464E170E080E090E00E94C30784E1C5
S11302C091E00E940C0568EC70E080E090E00E94F0
S11302D0C30762E081E00E941F051092B801C8EED6
S11302E0D3E000E010E045C091E09093B301843086
S11302F039F48EE20E94C50481E08093610034C029
S113030083EB91E00E9479038130D1F368EC70E0D3
S113031080E090E00E94C3078091B3010E94C5046D
S11303208091B8018430C8F48091B30190E0C09703
S11303308C9F90018D9F300D9C9F300D1124020FD6
S1130340131F9E01ADECBCEC0E94EA09EC01D695AA
S1130350C795D695C795D695C7951093AF010093C9
S1130360AE0181E0809361008091B8018F5F80933A
S1130370B8018091B801873008F4B6CF62E370E029
S113038080E090E00E94C307DF91CF911F910F910D
S11303900895CF92DF92EF92FF920F931F93CF9322
S11303A0DF9381E0C0E00DC029E1C29FC0011124A8
S11303B06FE670E083579F4F0E941B0A882321F049
S11303C0CF5FC33088F3C0E08111EBC0D0E089E196
S11303D08C9FF0018D9FF00D1124E857FF4F84810D
S11303E0811114C00E94250381E00E943B0464E152
S11303F070E080E090E00E94C30760E080E00E942B
S11304001F0585E291E00E940C05EDC089E18C9FF7
S1130410F0018D9FF00D1124E857FF4FC080D1806B
S1130420E280F3800091AE011091AF01B80180E049
S113043090E00E9419099B01AC01C701B6010E941A
S11304406C088823D4F481E00E943B0464E170E0EA
S113045080E090E00E94C30761E080E00E941F05F5
S113046084E391E00E940C0563E081E00E941F0593
S113047081E491E00E940C05B6C00938134100F1F3
S113048081E00E943B0464E170E080E090E00E941F
S1130490C30760E080E00E941F0586E491E00E94AB
S11304A00C0560E081E00E941F0587E591E00E9451
S11304B00C0568EE73E080E090E00E94C30793C0EF
S11304C081E00E943B0464E170E080E090E00E94DF
S11304D0C30763E080E00E941F0587E691E00E9465
S11304E00C0563E081E00E941F0580E791E00E9413
S11304F00C0568EE73E080E090E00E94C30781E0A1
S11305000E943B0464E170E080E090E00E94C30735
S113051029E12C9FC0012D9F900D1124EC01C85797
S1130520DF4F6091AE017091AF0180E090E00E94D6
S113053019099B01AC01688179818A819B810E94A0
S1130540FF07688379838A839B8360E080E00E944D
S11305501F058CE791E00E940C0564E081E00E9495
S11305601F05688179818A819B810E94E3080E942A
S1130570520568EE73E080E090E00E94C30781E0DA
S11305800E943B0464E170E080E090E00E94C307B5
S113059060E080E00E941F058AE891E00E940C055B
S11305A022C00E94250381E00E943B0464E170E0C4
S11305B080E090E00E94C30760E080E00E941F0595
S11305C088E991E00E940C0560E081E00E941F052B
S11305D082EA91E00E940C056FE080E00E941F0512
S11305E080E00E94C504DF91CF911F910F91FF908D
S11305F0EF90DF90CF90089540E00E94EA050895BF
S11306000F931F93CF93DF931F92CDB7DEB78A0169
S11306101982AE014F5F5F4F0E94E806811105C049
S11306208981F801808381E004C08981F801808395
S113063080E00F90DF91CF911F910F91089541E0D9
S113064063E081E00E94EA05089541E063E081E00F
S11306500E946906089540E063E081E00E94690613
S1130660089541E062E082E00E94EA0541E063E02F
S113067082E00E94EA0541E064E082E00E94EA052B
S113068041E060E083E00E94EA0540E065E082E04A
S11306900E94EA0540E066E082E00E94EA0540E04C
S11306A067E082E00E94EA0541E062E082E00E94A5
S11306B0690641E063E082E00E94690641E064E08B
S11306C082E00E94690641E060E083E00E946906DE
S11306D041E065E082E00E94690641E066E082E074
S11306E00E94690641E067E082E00E94690680E0BA
S11306F00895EF92FF920F931F93CF93DF93CDB79B
S1130700DEB727970FB6F894DEBF0FBECDBF7C01CE
S113071019821A821B821C8282E0898383E08A8385
S113072084E08B8385E08D8386E08E8387E08F83EE
S113073000E090C0033039F440E060E083E00E94C0
S1130740690610E072C0E1E0F0E0EC0FFD1FE00F7D
S1130750F11D40E0608182E00E946906F2CFE5E08D
S1130760F0E0EC0FFD1FE10FF11DA701608182E0B5
S11307700E94E806F7018081811156C0011111C061
S1130780111103C081E380833BC0113021F482E363
S1130790F701808335C0123099F583E3F701808334
S11307A02FC0013091F4111104C084E3F701808358
S11307B027C0113021F485E3F701808321C0123072
S11307C0F9F486E3F70180831BC0023091F4111120
S11307D004C087E3F701808313C0113021F488E358
S11307E0F70180830DC0123059F489E3F701808347
S11307F007C0033029F4111103C080E3F70180839B
S1130800033031F460E083E00E94260780E026C0D4
S1130810E1E0F0E0EC0FFD1FE00FF11D608182E0EC
S11308200E94260780E01AC01F5F133008F497CF98
S1130830033029F460E083E00E9426070AC0E1E067
S1130840F0E0EC0FFD1FE00FF11D608182E00E94DB
S113085026070F5F043008F46DCF81E027960FB6AA
S1130860F894DEBF0FBECDBFDF91CF911F910F91E2
S1130870FF90EF900895CF93C82F0E949C0740E00B
S113088061E080E00E94690640E062E080E00E944E
S1130890690640E063E080E00E9469068BB39C2F08
S11308A0907F8F70892B8BBB41E063E080E00E94D6
S11308B0690661E070E080E090E00E94C30740E0D8
S11308C063E080E00E94690620E1C29FC001112418
S11308D09BB39F70892B8BBB41E063E080E00E9457
S11308E0690661E070E080E090E00E94C30740E0A8
S11308F063E080E00E94690665E070E080E090E0DB
S11309000E94C307CF9108950E949C0741E061E0D3
S113091080E00E94EA0541E062E080E00E94EA058E
S113092041E063E080E00E94EA0541E064E080E0A9
S11309300E94EA0541E065E080E00E94EA0541E0AA
S113094066E080E00E94EA0541E067E080E00E9402
S1130950EA0564E170E080E090E00E94C30783E36D
S11309600E943B0482E30E943B0488E20E943B0411
S11309708CE00E943B0486E00E943B0482E00E94DB
S11309803B0481E00E943B040895CF93C82F41E0CB
S113099061E080E00E94690640E062E080E00E943D
S11309A0690640E063E080E00E9469068BB39C2FF7
S11309B0907F8F70892B8BBB41E063E080E00E94C5
S11309C0690661E070E080E090E00E94C30740E0C7
S11309D063E080E00E94690620E1C29FC001112407
S11309E09BB39F70892B8BBB41E063E080E00E9446
S11309F0690661E070E080E090E00E94C30740E097
S1130A0063E080E00E94690665E070E080E090E0C9
S1130A100E94C307CF9108950F931F93CF938C0126
S1130A20C0E003C00E94C504CF5FF801EC0FF11DC4
S1130A3080818111F7CFCF911F910F910895CF93AA
S1130A40DF9300D0CDB7DEB790E8998390EC9A831A
S1130A50E1E0F0E0EC0FFD1FE80FF11D8081860F4F
S1130A600E943B040F900F90DF91CF9108950F9354
S1130A701F93CF938C01862F90E00896880F880FE0
S1130A80880F0E943B04C0E007C0F801EC0FF11D81
S1130A9080810E94C504CF5FC830B8F3CF911F9105
S1130AA00F9108951F93CF93DF93CDB7DEB72A97A5
S1130AB00FB6F894DEBF0FBECDBF9923DCF5909539
S1130AC08095709561957F4F8F4F9F4F10E013C0B5
S1130AD02AE030E040E050E00E94CB09E1E0F0E0A1
S1130AE0EC0FFD1FE10FF11D605D6083622F732F1A
S1130AF0842F952F1F5F161617061806190644F340
S1130B00E1E0F0E0EC0FFD1FE10FF11D8DE28083C9
S1130B101F5F0DC0E12FF0E0319781E090E08C0F72
S1130B209D1FE80FF91F80810E94C5041150111107
S1130B30F1CF39C0611571058105910521F480E378
S1130B400E94C50430C01616170618061906ACF024
S1130B502AC02AE030E040E050E00E94CB09E1E006
S1130B60F0E0EC0FFD1FE10FF11D605D6083622F6B
S1130B70732F842F952F1F5F01C010E016161706E0
S1130B801806190634F30DC0E12FF0E0319781E027
S1130B9090E08C0F9D1FE80FF91F80810E94C5040F
S1130BA011501111F1CF2A960FB6F894DEBF0FBE83
S1130BB0CDBFDF91CF911F9108950E9449000E94FB
S1130BC09D000E94ED000E9452010E94C90180E034
S1130BD090E00895442319F04130E9F174C0813064
S1130BE099F028F08230E9F0833041F16EC02AB3E5
S1130BF081E090E002C0880F991F6A95E2F7809522
S1130C0082238ABB80E0089527B381E090E002C08C
S1130C10880F991F6A95E2F78095822387BB80E04D
S1130C20089524B381E090E002C0880F991F6A956B
S1130C30E2F78095822384BB80E0089521B381E0AC
S1130C4090E002C0880F991F6A95E2F7809582238D
S1130C5081BB80E00895813091F028F08230D9F092
S1130C60833029F134C02AB381E090E002C0880FB8
S1130C70991F6A95E2F7822B8ABB80E0089527B317
S1130C8081E090E002C0880F991F6A95E2F7822BF9
S1130C9087BB80E0089524B381E090E002C0880F10
S1130CA0991F6A95E2F7822B84BB80E0089521B3F3
S1130CB081E090E002C0880F991F6A95E2F7822BC9
S1130CC081BB80E0089581E0089581E0089581E08A
S1130CD00895442319F04130E9F174C0813099F04A
S1130CE028F08230E9F0833041F16EC02BB381E00B
S1130CF090E002C0880F991F6A95E2F780958223DD
S1130D008BBB80E0089528B381E090E002C0880F97
S1130D10991F6A95E2F78095822388BB80E0089545
S1130D2025B381E090E002C0880F991F6A95E2F72D
S1130D308095822385BB80E0089522B381E090E012
S1130D4002C0880F991F6A95E2F78095822382BBBF
S1130D5080E00895813091F028F08230D9F083301A
S1130D6029F134C02BB381E090E002C0880F991FB1
S1130D706A95E2F7822B8BBB80E0089528B381E06B
S1130D8090E002C0880F991F6A95E2F7822B88BB16
S1130D9080E0089525B381E090E002C0880F991F98
S1130DA06A95E2F7822B85BB80E0089522B381E047
S1130DB090E002C0880F991F6A95E2F7822B82BBEC
S1130DC080E0089581E0089581E0089581E0089528
S1130DD0813099F028F08230E9F0833041F134C059
S1130DE089B390E002C0959587956A95E2F7817082
S1130DF089BBFA01808380E0089586B390E002C045
S1130E00959587956A95E2F7817086BBFA01808390
S1130E1080E0089583B390E002C0959587956A9524
S1130E20E2F7817083BBFA01808380E0089580B388
S1130E3090E002C0959587956A95E2F7817080BB32
S1130E40FA01808380E0089581E00895813091F073
S1130E5028F08230D9F0833029F130C02BB381E0FF
S1130E6090E002C0880F991F6A95E2F782278BBB36
S1130E7080E0089528B381E090E002C0880F991FB4
S1130E806A95E2F7822788BB80E0089525B381E064
S1130E9090E002C0880F991F6A95E2F7822785BB0C
S1130EA080E0089522B381E090E002C0880F991F8A
S1130EB06A95E2F7822782BB80E0089581E0089575
S1130EC040E064E081E00E94EA0540E065E081E002
S1130ED00E94EA0541E066E081E00E94EA0540E004
S1130EE067E081E00E94EA058DB180648DB98DB11F
S1130EF08F7E8DB98DB1877F8DB98DB18B7F8DB983
S1130F000895779BFECF2FB1FC01208308950F93A2
S1130F101F93CF938C01C0E003C00E948107CF5F71
S1130F20C8018C0F911DFC0120812111F6CF108284
S1130F30CF911F910F91089583B78F7783BF83B7A4
S1130F408F7B83BF83B7877F83BF83B78F7E83BF46
S1130F5083B78F7D83BF80E0089583B7816083BFAB
S1130F6083B78D7F83BF83B7846083BF80E0089598
S1130F7083B78E7F83BF83B78D7F83BF83B78B7F18
S1130F8083BF80E008950E9419092FE632E143E807
S1130F9051E40E9471080E94EA086093B4017093BE
S1130FA0B5018093B6019093B70112BE0E94AD07BC
S1130FB040E050E0BA010AC008B600FEFDCF88B791
S1130FC0816088BF4F5F5F4F6F4F7F4F8091B40147
S1130FD09091B501A091B601B091B7014817590796
S1130FE06A077B0748F31092B4011092B50110927E
S1130FF0B6011092B7010E94B80780E008955058D6
S1131000BB27AA270E9417080C9491090E94830900
S113101038F00E948A0920F039F49F3F19F426F42D
S11310200C9480090EF4E095E7FB0C947A09E92FFF
S11310300E94A20958F3BA17620773078407950739
S113104020F079F4A6F50C94C4090EF4E0950B2E67
S1131050BA2FA02D0B01B90190010C01CA01A00106
S11310601124FF27591B99F0593F50F4503E68F161
S11310701A16F040A22F232F342F4427585FF3CFA2
S1131080469537952795A795F0405395C9F77EF473
S11310901F16BA0B620B730B840BBAF09150A1F0BC
S11310A0FF0FBB1F661F771F881FC2F70EC0BA0F42
S11310B0621F731F841F48F4879577956795B795CA
S11310C0F7959E3F08F0B0CF9395880F08F09927C5
S11310D0EE0F9795879508950E94560908F481E0CC
S11310E008950E9485080C9491090E948A0958F079
S11310F00E94830940F029F45F3F29F00C947A0997
S113110051110C94C5090C9480090E94A20968F33A
S11311109923B1F3552391F3951B550BBB27AA27AC
S113112062177307840738F09F5F5F4F220F331FE6
S1131130441FAA1FA9F335D00E2E3AF0E0E832D0AE
S113114091505040E695001CCAF72BD0FE2F29D0B1
S1131150660F771F881FBB1F261737074807AB0783
S1131160B0E809F0BB0B802DBF01FF2793585F4FF8
S11311703AF09E3F510578F00C947A090C94C50915
S11311805F3FE4F3983ED4F3869577956795B795DA
S1131190F7959F5FC9F7880F911D9695879597F9E5
S11311A00895E1E0660F771F881FBB1F621773075E
S11311B08407BA0720F0621B730B840BBA0BEE1F73
S11311C088F7E09508950E94EA086894B1110C9498
S11311D0C50908950E94AA0988F09F5798F0B92F6D
S11311E09927B751B0F0E1F0660F771F881F991F58
S11311F01AF0BA95C9F714C0B13091F00E94C4092D
S1131200B1E008950C94C409672F782F8827B85F3C
S113121039F0B93FCCF3869577956795B395D9F7AF
S11312203EF490958095709561957F4F8F4F9F4FB9
S11312300895E89409C097FB3EF4909580957095C5
S113124061957F4F8F4F9F4F9923A9F0F92F96E90E
S1131250BB279395F695879577956795B795F11183
S1131260F8CFFAF4BB0F11F460FF1BC06F5F7F4F20
S11312708F4F9F4F16C0882311F096E911C0772332
S113128021F09EE8872F762F05C0662371F096E83B
S1131290862F70E060E02AF09A95660F771F881F0A
S11312A0DAF7880F9695879597F90895990F0008AE
S11312B0550FAA0BE0E8FEEF16161706E807F90724
S11312C0C0F012161306E407F50798F0621B730BBF
S11312D0840B950B39F40A2661F0232B242B252B40
S11312E021F408950A2609F4A140A6958FEF811DE3
S11312F0811D089597F99F6780E870E060E0089584
S11313009FEF80EC089500240A9416161706180619
S11313100906089500240A941216130614060506F5
S11313200895092E0394000C11F4882352F0BB0F86
S113133040F4BF2B11F460FF04C06F5F7F4F8F4FE9
S11313409F4F089557FD9058440F551F59F05F3F24
S113135071F04795880F97FB991F61F09F3F79F0D3
S113136087950895121613061406551FF2CF469555
S1131370F1DF08C0161617061806991FF1CF8695D7
S11313807105610508940895E894BB2766277727BB
S1131390CB0197F90895052E97FB1EF400940E9443
S11313A0E20957FD07D00E94F90907FC03D04EF467
S11313B00C94E20950954095309521953F4F4F4F3D
S11313C05F4F089590958095709561957F4F8F4FED
S11313D09F4F0895A29FB001B39FC001A39F700DBA
S11313E0811D1124911DB29F700D811D1124911D29
S11313F00895A1E21A2EAA1BBB1BFD010DC0AA1F52
S1131400BB1FEE1FFF1FA217B307E407F50720F069
S1131410A21BB30BE40BF50B661F771F881F991FE4
S11314201A9469F760957095809590959B01AC012D
S1131430BD01CF010895FB01DC018D91019080195C
S10F14400110D9F3990B0895F894FFCF24
S113144C0101040E0E0E1F00040030303030003049
S113145C303030303030303030303030303030307C
S113146C303000303030300000401C460031323314
S113147C3435363738393031323332313435363716
S113148C0000C05A450131323334353637383930DF
S113149C3132333435363738390000A00C4601313B
S11314AC30303133353536373832303039373635EC
S11314BC3132002057454C434F4D4520544F204169
S11314CC544D202100496E73657274204120436190
S11314DC726400456E74657220596F7572205049A0
S11314EC4E0050494E204E4F54204D4154434845D4
S11314FC44202100454E5445522054484520414D2A
S113150C4F554E5400434152442049532053544F99
S113151C4C454E00494E53554646494349454E5455
S113152C2046554E44004D4158205452414E53418F
S113153C4354494F4E2000414D4F554E542045586D
S113154C43454544454400415050524F5645440090
S113155C5452414E53414354494F4E004E4557202B
S113156C42414C414E4345203A00454A4543544977
S113157C4E47204341524400544849532049532078
S111158C410046524155442043415244000060
S9030000FC
