:100000000C942A000C9447000C9447000C94470071
:100010000C9447000C9447000C9447000C94470044
:100020000C9447000C9447000C9447000C94470034
:100030000C9447000C9447000C9447000C94470024
:100040000C9447000C9447000C9447000C94470014
:100050000C94470011241FBECFE5D8E0DEBFCDBF12
:1000600011E0A0E6B0E0E4E5F4E102C005900D92F5
:10007000AE3AB107D9F721E0AEEAB1E001C01D9276
:10008000A93BB207E1F70E94E1050C94280A0C9401
:10009000000060E080E00E9400030E9423030E94B1
:1000A0002F0341E060E081E00E94EE0540E060E067
:1000B00081E00E946D060E94A0070E9464070E94D2
:1000C00035030E94880464E170E080E090E00E94C3
:1000D000C70760E082E690E00E943B0583ED90E078
:1000E0000E94100564EF71E080E090E00E94C70775
:1000F00081E00E943F0464E170E080E090E00E94B3
:10010000C70761E080E00E94230585EE90E00E9431
:10011000100540EB51E060E080E00E940403809114
:10012000B0018823B1F381E00E943F0464E170E0F4
:1001300080E090E00E94C707089581E00E943F049C
:1001400064E170E080E090E00E94C70760E080E03A
:100150000E94230583EF90E00E9410051092B801E1
:1001600025C083EB91E00E947D038130D1F3609143
:10017000B8016C5F81E00E9423058AE20E94C904F5
:10018000E091B801F0E0E659FF4F8091B301808320
:1001900068EC70E080E090E00E94C70781E0809307
:1001A00061008091B8018F5F8093B8018091B801A0
:1001B0008430B8F282EB91E00E947D036CEA73E038
:1001C00080E090E00E94C70782EB91E00E947D03EF
:1001D0008091B201803371F7089541E060E081E0E1
:1001E0000E946D066EE170E080E090E00E94C7071B
:1001F00083E890E00E948B076EE170E080E090E081
:100200000E94C7078FE690E00E948B0781E08093F1
:1002100060004DC06AE670E083E890E00E941F0A2B
:1002200080936000882309F44AC081E00E943F0463
:1002300064E170E080E090E00E94C70760E080E049
:100240000E94230582E091E00E94100564EF71E0B6
:1002500080E090E00E94C70781E00E943F0464E1D3
:1002600070E080E090E00E94C7078091B1018F5F4D
:100270008093B1018330C8F060E080E00E942305E4
:1002800082E091E00E9410050E94290364EF71E072
:1002900080E090E00E94C7070E942F0364EF71E0A6
:1002A00080E090E00E94C707E7CF0E949D00809108
:1002B000B101833020F4809160008111ABCF0895AB
:1002C0000F931F93CF93DF9381E00E943F0464E17B
:1002D00070E080E090E00E94C70784E191E00E9416
:1002E000100568EC70E080E090E00E94C70762E0D3
:1002F00081E00E9423051092B801C8EED3E000E02F
:1003000010E045C091E09093B301843039F48EE25F
:100310000E94C90481E08093610034C083EB91E0C6
:100320000E947D038130D1F368EC70E080E090E0C2
:100330000E94C7078091B3010E94C9048091B8014F
:100340008430C8F48091B30190E0C0978C9F9001F5
:100350008D9F300D9C9F300D1124020F131F9E01A5
:10036000ADECBCEC0E94EE09EC01D695C795D69594
:10037000C795D695C7951093AF010093AE0181E064
:10038000809361008091B8018F5F8093B801809164
:10039000B801873008F4B6CFDF91CF911F910F914C
:1003A0000895CF92DF92EF92FF92CF93DF9381E097
:1003B000C0E00DC029E1C29FC00111246FE670E0CA
:1003C00083579F4F0E941F0A882321F0CF5FC330BD
:1003D00088F3C0E08111EBC0D0E089E18C9FF0018F
:1003E0008D9FF00D1124E857FF4F8481811114C0B7
:1003F0000E94290381E00E943F0464E170E080E0F4
:1004000090E00E94C70760E080E00E94230585E23B
:1004100091E00E941005EDC06091AE017091AF01B6
:10042000693883E1780700F181E00E943F0464E1CC
:1004300070E080E090E00E94C70760E080E00E94EA
:10044000230584E391E00E94100560E081E00E94B2
:10045000230585E491E00E94100568EE73E080E0DA
:1004600090E00E94C707C5C089E18C9FF0018D9F75
:10047000F00D1124E857FF4FC080D180E280F38057
:1004800080E090E00E941D099B01AC01C701B6010C
:100490000E9470088823D4F481E00E943F0464E144
:1004A00070E080E090E00E94C70761E080E00E9479
:1004B000230585E591E00E94100563E081E00E943C
:1004C000230583E691E00E94100593C081E00E941D
:1004D0003F0464E170E080E090E00E94C70763E0C1
:1004E00080E00E94230588E691E00E94100563E009
:1004F00081E00E94230581E791E00E94100568EEEB
:1005000073E080E090E00E94C70781E00E943F0412
:1005100064E170E080E090E00E94C70729E12C9F31
:10052000C0012D9F900D1124EC01C857DF4F609141
:10053000AE017091AF0180E090E00E941D099B0127
:10054000AC01688179818A819B810E94030868835C
:1005500079838A839B8360E080E00E9423058DE796
:1005600091E00E94100564E081E00E94230568810B
:1005700079818A819B810E94E7080E94560568EE76
:1005800073E080E090E00E94C70781E00E943F0492
:1005900064E170E080E090E00E94C70760E080E0E6
:1005A0000E9423058BE891E00E94100522C00E9462
:1005B000290381E00E943F0464E170E080E090E064
:1005C0000E94C70760E080E00E94230589E991E06E
:1005D0000E94100560E081E00E94230583EA91E01B
:1005E0000E9410056FE080E00E94230580E00E94D9
:1005F000C904DF91CF91FF90EF90DF90CF900895E5
:1006000040E00E94EE0508950F931F93CF93DF9370
:100610001F92CDB7DEB78A011982AE014F5F5F4FDF
:100620000E94EC06811105C08981F801808381E078
:1006300004C08981F801808380E00F90DF91CF9121
:100640001F910F91089541E063E081E00E94EE0563
:10065000089541E063E081E00E946D06089540E066
:1006600063E081E00E946D06089541E062E082E06F
:100670000E94EE0541E063E082E00E94EE0541E069
:1006800064E082E00E94EE0541E060E083E00E94C9
:10069000EE0540E065E082E00E94EE0540E066E0A5
:1006A00082E00E94EE0540E067E082E00E94EE05F5
:1006B00041E062E082E00E946D0641E063E082E09A
:1006C0000E946D0641E064E082E00E946D0641E018
:1006D00060E083E00E946D0641E065E082E00E94F8
:1006E0006D0641E066E082E00E946D0641E067E051
:1006F00082E00E946D0680E00895EF92FF920F93D2
:100700001F93CF93DF93CDB7DEB727970FB6F8943B
:10071000DEBF0FBECDBF7C0119821A821B821C82F4
:1007200082E0898383E08A8384E08B8385E08D8304
:1007300086E08E8387E08F8300E090C0033039F439
:1007400040E060E083E00E946D0610E072C0E1E0EE
:10075000F0E0EC0FFD1FE00FF11D40E0608182E052
:100760000E946D06F2CFE5E0F0E0EC0FFD1FE10F17
:10077000F11DA701608182E00E94EC06F7018081F3
:10078000811156C0011111C0111103C081E3808392
:100790003BC0113021F482E3F701808335C0123071
:1007A00099F583E3F70180832FC0013091F4111193
:1007B00004C084E3F701808327C0113021F485E36E
:1007C000F701808321C01230F9F486E3F7018083BA
:1007D0001BC0023091F4111104C087E3F70180833C
:1007E00013C0113021F488E3F70180830DC012306B
:1007F00059F489E3F701808307C0033029F411110C
:1008000003C080E3F7018083033031F460E083E0CC
:100810000E942A0780E026C0E1E0F0E0EC0FFD1F17
:10082000E00FF11D608182E00E942A0780E01AC07B
:100830001F5F133008F497CF033029F460E083E0A2
:100840000E942A070AC0E1E0F0E0EC0FFD1FE00F74
:10085000F11D608182E00E942A070F5F043008F4D6
:100860006DCF81E027960FB6F894DEBF0FBECDBFE7
:10087000DF91CF911F910F91FF90EF900895CF934B
:10088000C82F0E94A00740E061E080E00E946D0652
:1008900040E062E080E00E946D0640E063E080E0BE
:1008A0000E946D068BB39C2F907F8F70892B8BBB22
:1008B00041E063E080E00E946D0661E070E080E06E
:1008C00090E00E94C70740E063E080E00E946D0670
:1008D00020E1C29FC00111249BB39F70892B8BBB69
:1008E00041E063E080E00E946D0661E070E080E03E
:1008F00090E00E94C70740E063E080E00E946D0640
:1009000065E070E080E090E00E94C707CF91089515
:100910000E94A00741E061E080E00E94EE0541E016
:1009200062E080E00E94EE0541E063E080E00E942A
:10093000EE0541E064E080E00E94EE0541E065E004
:1009400080E00E94EE0541E066E080E00E94EE0556
:1009500041E067E080E00E94EE0564E170E080E045
:1009600090E00E94C70783E30E943F0482E30E9455
:100970003F0488E20E943F048CE00E943F0486E02E
:100980000E943F0482E00E943F0481E00E943F04F5
:100990000895CF93C82F41E061E080E00E946D068A
:1009A00040E062E080E00E946D0640E063E080E0AD
:1009B0000E946D068BB39C2F907F8F70892B8BBB11
:1009C00041E063E080E00E946D0661E070E080E05D
:1009D00090E00E94C70740E063E080E00E946D065F
:1009E00020E1C29FC00111249BB39F70892B8BBB58
:1009F00041E063E080E00E946D0661E070E080E02D
:100A000090E00E94C70740E063E080E00E946D062E
:100A100065E070E080E090E00E94C707CF91089504
:100A20000F931F93CF938C01C0E003C00E94C904B1
:100A3000CF5FF801EC0FF11D80818111F7CFCF91CD
:100A40001F910F910895CF93DF9300D0CDB7DEB7FC
:100A500090E8998390EC9A83E1E0F0E0EC0FFD1FC1
:100A6000E80FF11D8081860F0E943F040F900F90C8
:100A7000DF91CF9108950F931F93CF938C01862F11
:100A800090E00896880F880F880F0E943F04C0E00E
:100A900007C0F801EC0FF11D80810E94C904CF5FEF
:100AA000C830B8F3CF911F910F9108951F93CF9342
:100AB000DF93CDB7DEB72A970FB6F894DEBF0FBE2F
:100AC000CDBF9923DCF590958095709561957F4F0A
:100AD0008F4F9F4F10E013C02AE030E040E050E01D
:100AE0000E94CF09E1E0F0E0EC0FFD1FE10FF11DE6
:100AF000605D6083622F732F842F952F1F5F161602
:100B000017061806190644F3E1E0F0E0EC0FFD1FAC
:100B1000E10FF11D8DE280831F5F0DC0E12FF0E03A
:100B2000319781E090E08C0F9D1FE80FF91F8081C5
:100B30000E94C90411501111F1CF39C0611571051E
:100B40008105910521F480E30E94C90430C0161686
:100B5000170618061906ACF02AC02AE030E040E07B
:100B600050E00E94CF09E1E0F0E0EC0FFD1FE10F43
:100B7000F11D605D6083622F732F842F952F1F5F9F
:100B800001C010E0161617061806190634F30DC03A
:100B9000E12FF0E0319781E090E08C0F9D1FE80F8E
:100BA000F91F80810E94C90411501111F1CF2A96BA
:100BB0000FB6F894DEBF0FBECDBFDF91CF911F916E
:100BC00008950E9449000E949D000E94ED000E942D
:100BD00060010E94D10180E090E00895442319F063
:100BE0004130E9F174C0813099F028F08230E9F0A9
:100BF000833041F16EC02AB381E090E002C0880FDB
:100C0000991F6A95E2F7809582238ABB80E0089558
:100C100027B381E090E002C0880F991F6A95E2F740
:100C20008095822387BB80E0089524B381E090E023
:100C300002C0880F991F6A95E2F78095822384BBD2
:100C400080E0089521B381E090E002C0880F991FF1
:100C50006A95E2F78095822381BB80E00895813018
:100C600091F028F08230D9F0833029F134C02AB3D2
:100C700081E090E002C0880F991F6A95E2F7822B0D
:100C80008ABB80E0089527B381E090E002C0880F1E
:100C9000991F6A95E2F7822B87BB80E0089524B301
:100CA00081E090E002C0880F991F6A95E2F7822BDD
:100CB00084BB80E0089521B381E090E002C0880FFA
:100CC000991F6A95E2F7822B81BB80E0089581E04D
:100CD000089581E0089581E00895442319F041309A
:100CE000E9F174C0813099F028F08230E9F0833066
:100CF00041F16EC02BB381E090E002C0880F991FD4
:100D00006A95E2F7809582238BBB80E0089528B333
:100D100081E090E002C0880F991F6A95E2F7809504
:100D2000822388BB80E0089525B381E090E002C073
:100D3000880F991F6A95E2F78095822385BB80E032
:100D4000089522B381E090E002C0880F991F6A9550
:100D5000E2F78095822382BB80E00895813091F094
:100D600028F08230D9F0833029F134C02BB381E0F0
:100D700090E002C0880F991F6A95E2F7822B8BBB27
:100D800080E0089528B381E090E002C0880F991FA9
:100D90006A95E2F7822B88BB80E0089525B381E055
:100DA00090E002C0880F991F6A95E2F7822B85BBFD
:100DB00080E0089522B381E090E002C0880F991F7F
:100DC0006A95E2F7822B82BB80E0089581E0089566
:100DD00081E0089581E00895813099F028F0823013
:100DE000E9F0833041F134C089B390E002C09595B9
:100DF00087956A95E2F7817089BBFA01808380E06C
:100E0000089586B390E002C0959587956A95E2F7BC
:100E1000817086BBFA01808380E0089583B390E0FF
:100E200002C0959587956A95E2F7817083BBFA01B8
:100E3000808380E0089580B390E002C09595879507
:100E40006A95E2F7817080BBFA01808380E00895A3
:100E500081E00895813091F028F08230D9F083301C
:100E600029F130C02BB381E090E002C0880F991FB8
:100E70006A95E2F782278BBB80E0089528B381E072
:100E800090E002C0880F991F6A95E2F7822788BB1D
:100E900080E0089525B381E090E002C0880F991F9B
:100EA0006A95E2F7822785BB80E0089522B381E04E
:100EB00090E002C0880F991F6A95E2F7822782BBF3
:100EC00080E0089581E0089540E064E081E00E94C0
:100ED000EE0540E065E081E00E94EE0541E066E05D
:100EE00081E00E94EE0540E067E081E00E94EE05AF
:100EF0008DB180648DB98DB18F7E8DB98DB1877FB5
:100F00008DB98DB18B7F8DB90895779BFECF2FB1B1
:100F1000FC01208308950F931F93CF938C01C0E0B1
:100F200003C00E948507CF5FC8018C0F911DFC0193
:100F300020812111F6CF1082CF911F910F9108953A
:100F400083B78F7783BF83B78F7B83BF83B7877F59
:100F500083BF83B78F7E83BF83B78F7D83BF80E0DE
:100F6000089583B7816083BF83B78D7F83BF83B7C5
:100F7000846083BF80E0089583B78E7F83BF83B78B
:100F80008D7F83BF83B78B7F83BF80E008950E94EE
:100F90001D092FE632E143E851E40E9475080E94E2
:100FA000EE086093B4017093B5018093B6019093FD
:100FB000B70112BE0E94B10740E050E0BA010AC07A
:100FC00008B600FEFDCF88B7816088BF4F5F5F4FD6
:100FD0006F4F7F4F8091B4019091B501A091B60100
:100FE000B091B701481759076A077B0748F3109279
:100FF000B4011092B5011092B6011092B7010E948F
:10100000BC0780E008955058BB27AA270E941B0800
:101010000C9495090E94870938F00E948E0920F0EF
:1010200039F49F3F19F426F40C9484090EF4E095EA
:10103000E7FB0C947E09E92F0E94A60958F3BA1722
:10104000620773078407950720F079F4A6F50C94DE
:10105000C8090EF4E0950B2EBA2FA02D0B01B90193
:1010600090010C01CA01A0011124FF27591B99F01E
:10107000593F50F4503E68F11A16F040A22F232F2A
:10108000342F4427585FF3CF469537952795A7957A
:10109000F0405395C9F77EF41F16BA0B620B730B21
:1010A000840BBAF09150A1F0FF0FBB1F661F771F92
:1010B000881FC2F70EC0BA0F621F731F841F48F447
:1010C000879577956795B795F7959E3F08F0B0CFD0
:1010D0009395880F08F09927EE0F979587950895B7
:1010E0000E945A0908F481E008950E9489080C942E
:1010F00095090E948E0958F00E94870940F029F452
:101100005F3F29F00C947E0951110C94C9090C948D
:1011100084090E94A60968F39923B1F3552391F33A
:10112000951B550BBB27AA2762177307840738F056
:101130009F5F5F4F220F331F441FAA1FA9F335D0B3
:101140000E2E3AF0E0E832D091505040E695001C67
:10115000CAF72BD0FE2F29D0660F771F881FBB1F21
:10116000261737074807AB07B0E809F0BB0B802DFF
:10117000BF01FF2793585F4F3AF09E3F510578F02B
:101180000C947E090C94C9095F3FE4F3983ED4F3B4
:10119000869577956795B795F7959F5FC9F7880FFF
:1011A000911D9695879597F90895E1E0660F771F51
:1011B000881FBB1F621773078407BA0720F0621BE2
:1011C000730B840BBA0BEE1F88F7E09508950E940D
:1011D000EE086894B1110C94C90908950E94AE09F3
:1011E00088F09F5798F0B92F9927B751B0F0E1F0E8
:1011F000660F771F881F991F1AF0BA95C9F714C098
:10120000B13091F00E94C809B1E008950C94C8096A
:10121000672F782F8827B85F39F0B93FCCF38695D0
:1012200077956795B395D9F73EF49095809570952D
:1012300061957F4F8F4F9F4F0895E89409C097FBAA
:101240003EF490958095709561957F4F8F4F9F4F9D
:101250009923A9F0F92F96E9BB279395F6958795E1
:1012600077956795B795F111F8CFFAF4BB0F11F4A4
:1012700060FF1BC06F5F7F4F8F4F9F4F16C088234B
:1012800011F096E911C0772321F09EE8872F762F81
:1012900005C0662371F096E8862F70E060E02AF0C2
:1012A0009A95660F771F881FDAF7880F96958795AE
:1012B00097F90895990F0008550FAA0BE0E8FEEF83
:1012C00016161706E807F907C0F012161306E4070A
:1012D000F50798F0621B730B840B950B39F40A2603
:1012E00061F0232B242B252B21F408950A2609F4E1
:1012F000A140A6958FEF811D811D089597F99F67E5
:1013000080E870E060E008959FEF80EC089500248D
:101310000A941616170618060906089500240A945A
:1013200012161306140605060895092E0394000CE0
:1013300011F4882352F0BB0F40F4BF2B11F460FF6F
:1013400004C06F5F7F4F8F4F9F4F089557FD905898
:10135000440F551F59F05F3F71F04795880F97FB79
:10136000991F61F09F3F79F0879508951216130633
:101370001406551FF2CF4695F1DF08C01616170662
:101380001806991FF1CF8695710561050894089597
:10139000E894BB2766277727CB0197F90895052E98
:1013A00097FB1EF400940E94E60957FD07D00E94A7
:1013B000FD0907FC03D04EF40C94E60950954095C6
:1013C000309521953F4F4F4F5F4F089590958095F1
:1013D000709561957F4F8F4F9F4F0895A29FB001E9
:1013E000B39FC001A39F700D811D1124911DB29F59
:1013F000700D811D1124911D0895A1E21A2EAA1BC2
:10140000BB1BFD010DC0AA1FBB1FEE1FFF1FA217B4
:10141000B307E407F50720F0A21BB30BE40BF50BB1
:10142000661F771F881F991F1A9469F7609570953A
:10143000809590959B01AC01BD01CF010895FB0102
:10144000DC018D91019080190110D9F3990B089559
:04145000F894FFCF3E
:101454000101040E0E0E1F00040030303030003045
:101464003030303030303030303030303030303078
:1014740030300030303030000080BB450031323332
:101484003435363738393031323332313435363712
:101494000000401C46013132333435363738393098
:1014A4003132333435363738390000A00C46013137
:1014B40030303133353536373832303039373635E8
:1014C4003132002057454C434F4D4520544F204165
:1014D400544D202100496E7365727420412043618C
:1014E400726400456E74657220596F75722050499C
:1014F4004E0050494E204E4F54204D4154434845D0
:1015040044202100454E5445522054484520414D25
:101514004F554E5400434152442049532053544F95
:101524004C454E004D4158205452414E5341435472
:10153400494F4E2000414D4F554E54204558434588
:101544004544454400494E53554646494349454E52
:1015540054200046554E4400415050524F56454485
:10156400005452414E53414354494F4E004E455747
:101574002042414C414E4345203A00454A4543549C
:10158400494E47204341524400544849532049534B
:0E15940020410046524155442043415244003C
:00000001FF
