:100000000C942A000C9447000C9447000C94470071
:100010000C9447000C9447000C9447000C94470044
:100020000C9447000C9447000C9447000C94470034
:100030000C9447000C9447000C9447000C94470024
:100040000C9447000C9447000C9447000C94470014
:100050000C94470011241FBECFE5D8E0DEBFCDBF12
:1000600010E0A0E6B0E0EAE0FFE002C005900D92EB
:10007000A43FB107D9F720E0A4EFB0E001C01D9282
:10008000AD3FB207E1F70E941C040C9483070C9467
:10009000000060E080E00E94E1010E9404020E94F2
:1000A000100241E060E081E00E94270440E060E04F
:1000B00081E00E94A6040E94D9050E949D050E942D
:1000C00016020E94690364E170E080E090E00E9403
:1000D000000680E890E00E94F10364EF71E080E0A8
:1000E00090E00E94000681E00E94200364E170E03D
:1000F00080E090E00E94000661E080E00E9404043D
:1001000082E990E00E94F10344EF50E060E080E07B
:100110000E94E5018091F4008823B1F381E00E9400
:10012000200364E170E080E090E00E940006089502
:1001300081E00E94200364E170E080E090E00E9492
:10014000000661E080E00E94040480EA90E00E94E2
:10015000F1031092FC0024C087EF90E00E945E0241
:100160008130D1F36091FC0081E00E9404048AE2B6
:100170000E94AA03E091FC00F0E0EE59FF4F80914D
:10018000F700808368EC70E080E090E00E94000659
:1001900081E0809361008091FC008F5F8093FC0080
:1001A0008091FC008430C0F286EF90E00E945E02F5
:1001B00068EE73E080E090E00E94000686EF90E039
:1001C0000E945E028091F600803371F7089541E04D
:1001D00060E081E00E94A6048BE790E00E94C405E5
:1001E0006EE170E080E090E00E94000687E690E01B
:1001F0000E94C40581E08093600045C062E670E023
:100200008BE790E00E947A0780936000882309F4CE
:1002100042C081E00E94200364E170E080E090E051
:100220000E94000660E080E00E9404048FEA90E0F3
:100230000E94F10364EF71E080E090E00E9400060C
:1002400081E00E94200364E170E080E090E00E9481
:1002500000060E9498008091F5008F5F8093F50062
:10026000823088F00E940A0264EF71E080E090E042
:100270000E9400060E94100264EF71E080E090E0AE
:100280000E940006EFCF8091F500823020F480912B
:1002900060008111B3CF08950F931F93CF93DF9325
:1002A00081E00E94200364E170E080E090E00E9421
:1002B000000681EC90E00E94F10368EC70E080E0C1
:1002C00090E00E94000662E081E00E940404109227
:1002D000FC00C8EED3E000E010E041C091E0909354
:1002E000F700843039F48EE20E94AA0381E0809303
:1002F000610030C087EF90E00E945E028130D1F350
:1003000068EC70E080E090E00E9400068091F700C9
:100310000E94AA038091FC008430C8F48091F70009
:1003200090E0C0978C9F90018D9F300D9C9F300D69
:100330001124020F131F9E01ADECBCEC0E946B0751
:10034000EC01D695C795D695C795D695C79581E00A
:10035000809361008091FC008F5F8093FC0080910E
:10036000FC00873008F4BACF64E670E080E090E0EB
:100370000E94000609381341F8F081E00E94200332
:1003800064E170E080E090E00E94000660E080E0C0
:100390000E94040482ED90E00E94F10360E081E09D
:1003A0000E94040483EE90E00E94F10368EE73E083
:1003B00080E090E00E940006DF91CF911F910F91A5
:1003C000089540E00E94270408950F931F93CF9350
:1003D000DF931F92CDB7DEB78A011982AE014F5F5E
:1003E0005F4F0E942505811105C08981F801808336
:1003F00081E004C08981F801808380E00F90DF9163
:10040000CF911F910F91089541E063E081E00E9438
:100410002704089541E063E081E00E94A604089566
:1004200040E063E081E00E94A604089541E062E0BC
:1004300082E00E94270441E063E082E00E942704FA
:1004400041E064E082E00E94270441E060E083E054
:100450000E94270440E065E082E00E94270440E01B
:1004600066E082E00E94270440E067E082E00E94AC
:10047000270441E062E082E00E94A60441E063E0DC
:1004800082E00E94A60441E064E082E00E94A604AB
:1004900041E060E083E00E94A60441E065E082E084
:1004A0000E94A60441E066E082E00E94A60441E0CA
:1004B00067E082E00E94A60480E00895EF92FF9238
:1004C0000F931F93CF93DF93CDB7DEB727970FB668
:1004D000F894DEBF0FBECDBF7C0119821A821B8249
:1004E0001C8282E0898383E08A8384E08B8385E0B9
:1004F0008D8386E08E8387E08F8300E090C0033099
:1005000039F440E060E083E00E94A60410E072C08D
:10051000E1E0F0E0EC0FFD1FE00FF11D40E0608135
:1005200082E00E94A604F2CFE5E0F0E0EC0FFD1FB0
:10053000E10FF11DA701608182E00E942505F7010E
:100540008081811156C0011111C0111103C081E3D6
:1005500080833BC0113021F482E3F701808335C0F2
:10056000123099F583E3F70180832FC0013091F4B5
:10057000111104C084E3F701808327C0113021F4F6
:1005800085E3F701808321C01230F9F486E3F70197
:1005900080831BC0023091F4111104C087E3F7017E
:1005A000808313C0113021F488E3F70180830DC0EC
:1005B000123059F489E3F701808307C0033029F42E
:1005C000111103C080E3F7018083033031F460E050
:1005D00083E00E94630580E026C0E1E0F0E0EC0FDC
:1005E000FD1FE00FF11D608182E00E94630580E045
:1005F0001AC01F5F133008F497CF033029F460E06E
:1006000083E00E9463050AC0E1E0F0E0EC0FFD1F0B
:10061000E00FF11D608182E00E9463050F5F0430EE
:1006200008F46DCF81E027960FB6F894DEBF0FBEB9
:10063000CDBFDF91CF911F910F91FF90EF90089563
:10064000CF93C82F0E94D90540E061E080E00E946E
:10065000A60440E062E080E00E94A60440E063E07F
:1006600080E00E94A6048BB39C2F907F8F70892B13
:100670008BBB41E063E080E00E94A60461E070E093
:1006800080E090E00E94000640E063E080E00E948D
:10069000A60420E1C29FC00111249BB39F70892B47
:1006A0008BBB41E063E080E00E94A60461E070E063
:1006B00080E090E00E94000640E063E080E00E945D
:1006C000A60465E070E080E090E00E940006CF9113
:1006D00008950E94D90541E061E080E00E9427046E
:1006E00041E062E080E00E94270441E063E080E0B6
:1006F0000E94270441E064E080E00E94270441E07A
:1007000065E080E00E94270441E066E080E00E940E
:10071000270441E067E080E00E94270464E170E084
:1007200080E090E00E94000683E30E94200382E3C1
:100730000E94200388E20E9420038CE00E94200394
:1007400086E00E94200382E00E94200381E00E9454
:1007500020030895CF93C82F41E061E080E00E941C
:10076000A60440E062E080E00E94A60440E063E06E
:1007700080E00E94A6048BB39C2F907F8F70892B02
:100780008BBB41E063E080E00E94A60461E070E082
:1007900080E090E00E94000640E063E080E00E947C
:1007A000A60420E1C29FC00111249BB39F70892B36
:1007B0008BBB41E063E080E00E94A60461E070E052
:1007C00080E090E00E94000640E063E080E00E944C
:1007D000A60465E070E080E090E00E940006CF9102
:1007E00008950F931F93CF938C01C0E003C00E9424
:1007F000AA03CF5FF801EC0FF11D80818111F7CFC3
:10080000CF911F910F910895CF93DF9300D0CDB773
:10081000DEB790E8998390EC9A83E1E0F0E0EC0F8A
:10082000FD1FE80FF11D8081860F0E9420030F90AD
:100830000F90DF91CF9108950E9449000E94980087
:100840000E94E7000E944C0180E090E0089544235C
:1008500019F04130E9F174C0813099F028F082300C
:10086000E9F0833041F16EC02AB381E090E002C02C
:10087000880F991F6A95E2F7809582238ABB80E0F2
:10088000089527B381E090E002C0880F991F6A9510
:10089000E2F78095822387BB80E0089524B381E04E
:1008A00090E002C0880F991F6A95E2F78095822335
:1008B00084BB80E0089521B381E090E002C0880FFE
:1008C000991F6A95E2F78095822381BB80E00895A5
:1008D000813091F028F08230D9F0833029F134C092
:1008E0002AB381E090E002C0880F991F6A95E2F771
:1008F000822B8ABB80E0089527B381E090E002C09C
:10090000880F991F6A95E2F7822B87BB80E00895D4
:1009100024B381E090E002C0880F991F6A95E2F746
:10092000822B84BB80E0089521B381E090E002C077
:10093000880F991F6A95E2F7822B81BB80E00895AA
:1009400081E0089581E0089581E00895442319F03D
:100950004130E9F174C0813099F028F08230E9F03B
:10096000833041F16EC02BB381E090E002C0880F6C
:10097000991F6A95E2F7809582238BBB80E00895EA
:1009800028B381E090E002C0880F991F6A95E2F7D2
:100990008095822388BB80E0089525B381E090E0B4
:1009A00002C0880F991F6A95E2F78095822385BB64
:1009B00080E0089522B381E090E002C0880F991F83
:1009C0006A95E2F78095822382BB80E008958130AA
:1009D00091F028F08230D9F0833029F134C02BB364
:1009E00081E090E002C0880F991F6A95E2F7822BA0
:1009F0008BBB80E0089528B381E090E002C0880FAF
:100A0000991F6A95E2F7822B88BB80E0089525B391
:100A100081E090E002C0880F991F6A95E2F7822B6F
:100A200085BB80E0089522B381E090E002C0880F8A
:100A3000991F6A95E2F7822B82BB80E0089581E0DE
:100A4000089581E0089581E00895813099F028F0BB
:100A50008230E9F0833041F134C089B390E002C0C4
:100A6000959587956A95E2F7817089BBFA01808335
:100A700080E0089586B390E002C0959587956A95C9
:100A8000E2F7817086BBFA01808380E0089583B32A
:100A900090E002C0959587956A95E2F7817083BBD7
:100AA000FA01808380E0089580B390E002C09595BC
:100AB00087956A95E2F7817080BBFA01808380E0B8
:100AC000089581E00895813091F028F08230D9F0C6
:100AD000833029F130C02BB381E090E002C0880F51
:100AE000991F6A95E2F782278BBB80E0089528B3AF
:100AF00081E090E002C0880F991F6A95E2F7822793
:100B000088BB80E0089525B381E090E002C0880FA3
:100B1000991F6A95E2F7822785BB80E0089522B38A
:100B200081E090E002C0880F991F6A95E2F7822762
:100B300082BB80E0089581E0089540E064E081E0B8
:100B40000E94270440E065E081E00E94270441E024
:100B500066E081E00E94270440E067E081E00E94B7
:100B600027048DB180648DB98DB18F7E8DB98DB123
:100B7000877F8DB98DB18B7F8DB90895779BFECF1F
:100B80002FB1FC01208308950F931F93CF938C0105
:100B9000C0E003C00E94BE05CF5FC8018C0F911D4D
:100BA000FC0120812111F6CF1082CF911F910F916E
:100BB000089583B78F7783BF83B78F7B83BF83B756
:100BC000877F83BF83B78F7E83BF83B78F7D83BFCC
:100BD00080E0089583B7816083BF83B78D7F83BF33
:100BE00083B7846083BF80E0089583B78E7F83BF1F
:100BF00083B78D7F83BF83B78B7F83BF80E00895EA
:100C00000E94DD062FE632E143E851E40E943C06F3
:100C10000E94AE066093F8007093F9008093FA008A
:100C20009093FB0012BE0E94EA0540E050E0BA013A
:100C30000AC008B600FEFDCF88B7816088BF4F5F4D
:100C40005F4F6F4F7F4F8091F8009091F900A09116
:100C5000FA00B091FB00481759076A077B0748F371
:100C60001092F8001092F9001092FA001092FB0016
:100C70000E94F50580E008950E9450060C9431070B
:100C80000E942A0758F00E94230740F029F45F3F92
:100C900029F00C941A0751110C9465070C94200745
:100CA0000E94420768F39923B1F3552391F3951BF2
:100CB000550BBB27AA2762177307840738F09F5F7D
:100CC0005F4F220F331F441FAA1FA9F335D00E2EEA
:100CD0003AF0E0E832D091505040E695001CCAF757
:100CE0002BD0FE2F29D0660F771F881FBB1F26171A
:100CF00037074807AB07B0E809F0BB0B802DBF01F1
:100D0000FF2793585F4F3AF09E3F510578F00C94BF
:100D10001A070C9465075F3FE4F3983ED4F3869579
:100D200077956795B795F7959F5FC9F7880F911DE0
:100D30009695879597F90895E1E0660F771F881FCC
:100D4000BB1F621773078407BA0720F0621B730B7F
:100D5000840BBA0BEE1F88F7E09508950E944A07AE
:100D600088F09F5798F0B92F9927B751B0F0E1F06C
:100D7000660F771F881F991F1AF0BA95C9F714C01C
:100D8000B13091F00E946407B1E008950C946407BB
:100D9000672F782F8827B85F39F0B93FCCF3869555
:100DA00077956795B395D9F73EF4909580957095B2
:100DB00061957F4F8F4F9F4F0895E89409C097FB2F
:100DC0003EF490958095709561957F4F8F4F9F4F22
:100DD0009923A9F0F92F96E9BB279395F695879566
:100DE00077956795B795F111F8CFFAF4BB0F11F429
:100DF00060FF1BC06F5F7F4F8F4F9F4F16C08823D0
:100E000011F096E911C0772321F09EE8872F762F05
:100E100005C0662371F096E8862F70E060E02AF046
:100E20009A95660F771F881FDAF7880F9695879532
:100E300097F9089597F99F6780E870E060E008955A
:100E40009FEF80EC089500240A94161617061806E2
:100E50000906089500240A941216130614060506BE
:100E60000895092E0394000C11F4882352F0BB0F4F
:100E700040F4BF2B11F460FF04C06F5F7F4F8F4FB2
:100E80009F4F089557FD9058440F551F59F05F3FED
:100E900071F04795880F97FB991F61F09F3F79F09C
:100EA00087950895121613061406551FF2CF46951E
:100EB000F1DF08C0161617061806991FF1CF8695A0
:100EC0007105610508940895E894BB276627772784
:100ED000CB0197F90895A29FB001B39FC001A39FD2
:100EE000700D811D1124911DB29F700D811D112463
:100EF000911D0895FB01DC018D9101908019011075
:0A0F0000D9F3990B0895F894FFCF80
:100F0A000101303030300030303030303030303065
:100F1A003030303030303030303000303030300027
:100F2A002057454C434F4D4520544F2041544D20A6
:100F3A002100496E73657274204120436172640016
:100F4A00456E74657220596F75722050494E005073
:100F5A00494E204E4F54204D415443484544202188
:100F6A0000454E5445522054484520414D4F554E58
:100F7A0054004D4158205452414E53414354494F15
:100F8A004E2000414D4F554E542045584345454447
:040F9A0045440000CA
:00000001FF
