S00F000041544D5F4543552E73726563F7
S11300000C942A000C9447000C9447000C9447006D
S11300100C9447000C9447000C9447000C94470040
S11300200C9447000C9447000C9447000C94470030
S11300300C9447000C9447000C9447000C94470020
S11300400C9447000C9447000C9447000C94470010
S11300500C94470011241FBECFE5D8E0DEBFCDBF0E
S113006010E0A0E6B0E0E8E2FBE002C005900D92EB
S1130070A239B107D9F720E0A2E9B0E001C01D928E
S1130080A739B207E1F70E9485020C9492050C94FB
S113009000000E9400040E94BB000E94D20164E19F
S11300A070E080E090E00E94270486E690E00E94E1
S11300B05A0264EF71E080E090E00E94270481E03E
S11300C00E94890164E170E080E090E00E942704CE
S11300D061E081E00E946D0284E790E00E945A0290
S11300E081E00E94890164E170E080E090E00E9478
S11300F027040895CF93C0E01AC082E990E00E94DB
S1130100F90080916000811111C0809192000E94D9
S11301101302EC2FF0E0EF59FF4F8091920080839F
S113012068EC70E080E090E00E942704CF5FC43068
S113013020F3CF91089561E080E00E946D0282E88F
S113014090E00E945A0261E081E00E946D020E94E8
S11301507A0081E00E94890164E170E080E090E02F
S11301600E94270460E080E00E946D0281E690E036
S11301700E945A02089541E062E082E00E948A02ED
S113018041E063E082E00E948A0241E064E082E0B0
S11301900E948A0240E065E082E00E948A0240E018
S11301A066E082E00E948A0240E067E082E00E940A
S11301B08A0241E062E082E00E94090341E063E0D8
S11301C082E00E94090341E064E082E00E940903A6
S11301D041E065E082E00E94090341E066E082E0DC
S11301E00E94090341E067E082E00E94090380E085
S11301F00895DF92EF92FF920F931F93CF93DF93B3
S113020000D000D000D0CDB7DEB77C0182E0898376
S113021083E08A8384E08B8385E08C8386E08D830E
S113022087E08E8300E064C0E1E0F0E0EC0FFD1FA6
S1130230E00FF11DD08040E06D2D82E00E940903A3
S113024010E04EC0E4E0F0E0EC0FFD1FE10FF11D03
S1130250A701608182E00E948803F70180818111F7
S11302603EC0011111C0111103C081E3808333C06A
S1130270113021F482E3F70180832DC0123059F547
S113028083E3F701808327C0013091F4111104C086
S113029084E3F70180831FC0113021F485E3F70163
S11302A0808319C01230B9F486E3F701808313C048
S11302B0023089F4111104C087E3F70180830BC075
S11302C0113021F488E3F701808305C0123019F45A
S11302D089E3F70180836D2D82E00E94C6031F5FCE
S11302E0133008F4AFCF6D2D82E00E94C6030F5F78
S11302F0033008F499CF26960FB6F894DEBF0FBEEC
S1130300CDBFDF91CF911F910F91FF90EF90DF90C0
S11303100895CF93C82F0E94000440E061E080E07C
S11303200E94090340E062E080E00E94090340E08B
S113033063E080E00E9409038BB39C2F907F8F7051
S1130340892B8BBB41E063E080E00E94090361E0FC
S113035070E080E090E00E94270440E063E080E0E9
S11303600E94090320E1C29FC00111249BB39F7026
S1130370892B8BBB41E063E080E00E94090361E0CC
S113038070E080E090E00E94270440E063E080E0B9
S11303900E94090365E070E080E090E00E94270479
S11303A0CF9108950E94000441E061E080E00E9442
S11303B08A0241E062E080E00E948A0241E063E058
S11303C080E00E948A0241E064E080E00E948A02A8
S11303D041E065E080E00E948A0241E066E080E05E
S11303E00E948A0241E067E080E00E948A0264E1A0
S11303F070E080E090E00E94270483E30E9489017A
S113040082E30E94890188E20E9489018CE00E94B3
S1130410890186E00E94890182E00E94890181E0CD
S11304200E9489010895CF93C82F41E061E080E0E4
S11304300E94090340E062E080E00E94090340E07A
S113044063E080E00E9409038BB39C2F907F8F7040
S1130450892B8BBB41E063E080E00E94090361E0EB
S113046070E080E090E00E94270440E063E080E0D8
S11304700E94090320E1C29FC00111249BB39F7015
S1130480892B8BBB41E063E080E00E94090361E0BB
S113049070E080E090E00E94270440E063E080E0A8
S11304A00E94090365E070E080E090E00E94270468
S11304B0CF9108950F931F93CF938C01C0E003C095
S11304C00E941302CF5FF801EC0FF11D80818111AE
S11304D0F7CFCF911F910F910895CF93DF9300D061
S11304E0CDB7DEB790E8998390EC9A83E1E0F0E031
S11304F0EC0FFD1FE80FF11D8081860F0E9489011A
S11305000F900F90DF91CF9108950E9449000E94AF
S11305109B00FFCF442319F04130E9F174C08130CE
S113052099F028F08230E9F0833041F16EC02AB3AB
S113053081E090E002C0880F991F6A95E2F78095E8
S113054082238ABB80E0089527B381E090E002C053
S1130550880F991F6A95E2F78095822387BB80E014
S1130560089524B381E090E002C0880F991F6A9532
S1130570E2F78095822384BB80E0089521B381E073
S113058090E002C0880F991F6A95E2F78095822354
S113059081BB80E00895813091F028F08230D9F059
S11305A0833029F134C02AB381E090E002C0880F7F
S11305B0991F6A95E2F7822B8ABB80E0089527B3DE
S11305C081E090E002C0880F991F6A95E2F7822BC0
S11305D087BB80E0089524B381E090E002C0880FD7
S11305E0991F6A95E2F7822B84BB80E0089521B3BA
S11305F081E090E002C0880F991F6A95E2F7822B90
S113060081BB80E0089581E0089581E0089581E050
S11306100895442319F04130E9F174C0813099F010
S113062028F08230E9F0833041F16EC02BB381E0D1
S113063090E002C0880F991F6A95E2F780958223A3
S11306408BBB80E0089528B381E090E002C0880F5E
S1130650991F6A95E2F78095822388BB80E008950C
S113066025B381E090E002C0880F991F6A95E2F7F4
S11306708095822385BB80E0089522B381E090E0D9
S113068002C0880F991F6A95E2F78095822382BB86
S113069080E00895813091F028F08230D9F08330E1
S11306A029F134C02BB381E090E002C0880F991F78
S11306B06A95E2F7822B8BBB80E0089528B381E032
S11306C090E002C0880F991F6A95E2F7822B88BBDD
S11306D080E0089525B381E090E002C0880F991F5F
S11306E06A95E2F7822B85BB80E0089522B381E00E
S11306F090E002C0880F991F6A95E2F7822B82BBB3
S113070080E0089581E0089581E0089581E00895EE
S1130710813099F028F08230E9F0833041F134C01F
S113072089B390E002C0959587956A95E2F7817048
S113073089BBFA01808380E0089586B390E002C00B
S1130740959587956A95E2F7817086BBFA01808357
S113075080E0089583B390E002C0959587956A95EB
S1130760E2F7817083BBFA01808380E0089580B34F
S113077090E002C0959587956A95E2F7817080BBF9
S1130780FA01808380E0089581E00895813091F03A
S113079028F08230D9F0833029F130C02BB381E0C6
S11307A090E002C0880F991F6A95E2F782278BBBFD
S11307B080E0089528B381E090E002C0880F991F7B
S11307C06A95E2F7822788BB80E0089525B381E02B
S11307D090E002C0880F991F6A95E2F7822785BBD3
S11307E080E0089522B381E090E002C0880F991F51
S11307F06A95E2F7822782BB80E0089581E008953C
S113080083B78F7783BF83B78F7B83BF83B7877F9C
S113081083BF83B78F7E83BF83B78F7D83BF80E021
S1130820089583B7816083BF83B78D7F83BF83B708
S1130830846083BF80E0089583B78E7F83BF83B7CE
S11308408D7F83BF83B78B7F83BF80E008950E9431
S113085004052FE632E143E851E40E9463040E9458
S1130860D5046093930070939400809395009093C3
S1130870960012BE0E94110440E050E0BA010AC082
S113088008B600FEFDCF88B7816088BF4F5F5F4F19
S11308906F4F7F4F8091930090919400A0919500A9
S11308A0B0919600481759076A077B0748F31092DE
S11308B093001092940010929500109296000E945A
S11308C01C0480E008950E9477040C9458050E944B
S11308D0510558F00E944A0540F029F45F3F29F081
S11308E00C94410551110C948C050C9447050E94FD
S11308F0690568F39923B1F3552391F3951B550BBF
S1130900BB27AA2762177307840738F09F5F5F4FDE
S1130910220F331F441FAA1FA9F335D00E2E3AF01D
S1130920E0E832D091505040E695001CCAF72BD035
S1130930FE2F29D0660F771F881FBB1F2617370786
S11309404807AB07B0E809F0BB0B802DBF01FF27B8
S113095093585F4F3AF09E3F510578F00C9441054F
S11309600C948C055F3FE4F3983ED4F38695779519
S11309706795B795F7959F5FC9F7880F911D969571
S1130980879597F90895E1E0660F771F881FBB1FCD
S1130990621773078407BA0720F0621B730B840B7A
S11309A0BA0BEE1F88F7E09508950E94710588F050
S11309B09F5798F0B92F9927B751B0F0E1F0660F1F
S11309C0771F881F991F1AF0BA95C9F714C0B13060
S11309D091F00E948B05B1E008950C948B05672F6C
S11309E0782F8827B85F39F0B93FCCF3869577958F
S11309F06795B395D9F73EF4909580957095619578
S1130A007F4F8F4F9F4F0895E89409C097FB3EF4A2
S1130A1090958095709561957F4F8F4F9F4F992347
S1130A20A9F0F92F96E9BB279395F69587957795C5
S1130A306795B795F111F8CFFAF4BB0F11F460FF85
S1130A401BC06F5F7F4F8F4F9F4F16C0882311F0DD
S1130A5096E911C0772321F09EE8872F762F05C0F1
S1130A60662371F096E8862F70E060E02AF09A958C
S1130A70660F771F881FDAF7880F9695879597F981
S1130A80089597F99F6780E870E060E008959FEF0C
S1130A9080EC089500240A94161617061806090611
S1130AA0089500240A9412161306140605060895E0
S1130AB0092E0394000C11F4882352F0BB0F40F468
S1130AC0BF2B11F460FF04C06F5F7F4F8F4F9F4FA8
S1130AD0089557FD9058440F551F59F05F3F71F02A
S1130AE04795880F97FB991F61F09F3F79F0879591
S1130AF00895121613061406551FF2CF4695F1DF1A
S1130B0008C0161617061806991FF1CF86957105A9
S1130B10610508940895E894BB2766277727CB01DD
S10B0B2097F90895F894FFCF42
S1130B280130303030002059412057454C434F4D57
S1130B3845202100496E7365727420412043617217
S1130B486400456E74657220596F75722050494E61
S1050B58000097
S9030000FC
