S00F000041544D5F4543552E73726563F7
S11300000C942A000C9447000C9447000C9447006D
S11300100C9447000C9447000C9447000C94470040
S11300200C9447000C9447000C9447000C94470030
S11300300C9447000C9447000C9447000C94470020
S11300400C9447000C9447000C9447000C94470010
S11300500C94470011241FBECFE5D8E0DEBFCDBF0E
S113006011E0A0E6B0E0E8E8F4E102C005900D92EA
S1130070AE3AB107D9F721E0AEEAB1E001C01D9272
S1130080A93BB207E1F70E94F6050C94420A0C94CE
S1130090000060E080E00E9415030E9438030E9483
S11300A0440341E060E081E00E94030640E060E038
S11300B081E00E9482060E94B5070E9479070E948F
S11300C04A030E949D0464E170E080E090E00E9495
S11300D0DC0760E082E690E00E94500583ED90E04A
S11300E00E94250564EF71E080E090E00E94DC0747
S11300F081E00E94540464E170E080E090E00E949A
S1130100DC0761E080E00E94380585EE90E00E9403
S1130110250540EB51E060E080E00E9419038091E6
S1130120B0018823B1F381E00E94540464E170E0DB
S113013080E090E00E94DC07089581E00E9454046E
S113014064E170E080E090E00E94DC0760E080E021
S11301500E94380583EF90E00E9425051092B801B3
S113016025C083EB91E00E9492038130D1F360912A
S1130170B8016C5F81E00E9438058AE20E94DE04C7
S1130180E091B801F0E0E659FF4F8091B30180831C
S113019068EC70E080E090E00E94DC0781E08093EE
S11301A061008091B8018F5F8093B8018091B8019C
S11301B08430B8F282EB91E00E94920368EE73E01F
S11301C080E090E00E94DC0782EB91E00E949203C1
S11301D08091B201803371F7089541E060E081E0DD
S11301E00E9482066EE170E080E090E00E94DC07ED
S11301F083E890E00E94A0076EE170E080E090E068
S11302000E94DC078FE690E00E94A00781E08093C3
S1130210600045C06AE670E083E890E00E94390A15
S113022080936000882309F442C081E00E94540452
S113023064E170E080E090E00E94DC0760E080E030
S11302400E94380582E091E00E94250564EF71E088
S113025080E090E00E94DC0781E00E94540464E1A5
S113026070E080E090E00E94DC070E949D00809195
S1130270B1018F5F8093B101823088F00E943E0308
S113028064EF71E080E090E00E94DC070E94440388
S113029064EF71E080E090E00E94DC07EFCF809192
S11302A0B101823020F4809160008111B3CF0895B0
S11302B00F931F93CF93DF9381E00E94540464E172
S11302C070E080E090E00E94DC0784E191E00E940D
S11302D0250568EC70E080E090E00E94DC0762E0B5
S11302E081E00E9438051092B801C8EED3E000E026
S11302F010E045C091E09093B301843039F48EE26C
S11303000E94DE0481E08093610034C083EB91E0BD
S11303100E9492038130D1F368EC70E080E090E0B9
S11303200E94DC078091B3010E94DE048091B80131
S11303308430C8F48091B30190E0C0978C9F900101
S11303408D9F300D9C9F300D1124020F131F9E01B1
S1130350ADECBCEC0E94080AEC01D695C795D69585
S1130360C795D695C7951093AF010093AE0181E070
S1130370809361008091B8018F5F8093B801809170
S1130380B801873008F4B6CF62E370E080E090E013
S11303900E94DC07DF91CF911F910F9108958F92F6
S11303A09F92AF92BF92CF92DF92EF92FF920F9300
S11303B01F93CF93DF9381E0C0E00DC029E1C29F7A
S11303C0C00111246FE670E083579F4F0E94390AE1
S11303D0882321F0CF5FC33088F3C0E08111F6C0D9
S11303E0D0E089E18C9FF0018D9FF00D1124E85736
S11303F0FF4F8481811114C00E943E0381E00E945A
S1130400540464E170E080E090E00E94DC0760E066
S113041080E00E94380585E291E00E942505F8C03D
S113042089E18C9FF0018D9FF00D1124E857FF4F57
S1130430C080D180E280F3800091AE011091AF01C1
S1130440B80180E090E00E9432094B015C019B01FD
S1130450AC01C701B6010E9485088823D4F481E069
S11304600E94540464E170E080E090E00E94DC07A4
S113047061E080E00E94380584E391E00E94250554
S113048063E081E00E94380582E491E00E94250542
S1130490BFC0A5019401C701B6010E94E409181662
S11304A024F50938134108F4B3C081E00E945404D0
S11304B064E170E080E090E00E94DC0760E080E0AE
S11304C00E94380587E491E00E94250560E081E000
S11304D00E94380588E591E00E94250568EE73E0E6
S11304E080E090E00E94DC0793C081E00E94540405
S11304F064E170E080E090E00E94DC0763E080E06B
S11305000E94380588E691E00E94250563E081E0B9
S11305100E94380581E791E00E94250568EE73E0AA
S113052080E090E00E94DC0781E00E94540464E1D2
S113053070E080E090E00E94DC0729E12C9FC0017C
S11305402D9F900D1124EC01C857DF4F6091AE012F
S11305507091AF0180E090E00E9432099B01AC01F0
S1130560688179818A819B810E94180868837983D4
S11305708A839B8360E080E00E9438058DE791E0E8
S11305800E94250564E081E00E9438056881798134
S11305908A819B810E94FC080E946B0568EE73E0CF
S11305A080E090E00E94DC0781E00E94540464E152
S11305B070E080E090E00E94DC0760E080E00E9450
S11305C038058BE891E00E94250522C00E943E0375
S11305D081E00E94540464E170E080E090E00E94B5
S11305E0DC0760E080E00E94380589E991E00E9420
S11305F0250560E081E00E94380583EA91E00E94CD
S113060025056FE080E00E94380580E00E94DE044A
S1130610DF91CF911F910F91FF90EF90DF90CF90DA
S1130620BF90AF909F908F90089540E00E94030682
S113063008950F931F93CF93DF931F92CDB7DEB727
S11306408A011982AE014F5F5F4F0E940107811139
S113065005C08981F801808381E004C08981F801A3
S1130660808380E00F90DF91CF911F910F910895C7
S113067041E063E081E00E940306089541E063E005
S113068081E00E948206089540E063E081E00E94D8
S11306908206089541E062E082E00E94030641E0A0
S11306A063E082E00E94030641E064E082E00E948D
S11306B0030641E060E083E00E94030640E065E059
S11306C082E00E94030640E066E082E00E940306A6
S11306D040E067E082E00E94030641E062E082E0DD
S11306E00E94820641E063E082E00E94820641E0CB
S11306F064E082E00E94820641E060E083E00E94C0
S1130700820641E065E082E00E94820641E066E004
S113071082E00E94820641E067E082E00E94820655
S113072080E00895EF92FF920F931F93CF93DF938E
S1130730CDB7DEB727970FB6F894DEBF0FBECDBF97
S11307407C0119821A821B821C8282E0898383E0E5
S11307508A8384E08B8385E08D8386E08E8387E0C3
S11307608F8300E090C0033039F440E060E083E020
S11307700E94820610E072C0E1E0F0E0EC0FFD1F81
S1130780E00FF11D40E0608182E00E948206F2CF1A
S1130790E5E0F0E0EC0FFD1FE10FF11DA701608122
S11307A082E00E940107F7018081811156C0011186
S11307B011C0111103C081E380833BC0113021F4C7
S11307C082E3F701808335C0123099F583E3F701A2
S11307D080832FC0013091F4111104C084E3F70128
S11307E0808327C0113021F485E3F701808321C081
S11307F01230F9F486E3F70180831BC0023091F4D0
S1130800111104C087E3F701808313C0113021F470
S113081088E3F70180830DC0123059F489E3F701AE
S1130820808307C0033029F4111103C080E3F7016A
S11308308083033031F460E083E00E943F0780E06E
S113084026C0E1E0F0E0EC0FFD1FE00FF11D608138
S113085082E00E943F0780E01AC01F5F133008F453
S113086097CF033029F460E083E00E943F070AC079
S1130870E1E0F0E0EC0FFD1FE00FF11D608182E08C
S11308800E943F070F5F043008F46DCF81E0279684
S11308900FB6F894DEBF0FBECDBFDF91CF911F918D
S11308A00F91FF90EF900895CF93C82F0E94B50742
S11308B040E061E080E00E94820640E062E080E087
S11308C00E94820640E063E080E00E9482068BB3CF
S11308D09C2F907F8F70892B8BBB41E063E080E07D
S11308E00E94820661E070E080E090E00E94DC07F4
S11308F040E063E080E00E94820620E1C29FC001E4
S113090011249BB39F70892B8BBB41E063E080E093
S11309100E94820661E070E080E090E00E94DC07C3
S113092040E063E080E00E94820665E070E080E0E1
S113093090E00E94DC07CF9108950E94B50741E042
S113094061E080E00E94030641E062E080E00E94F2
S1130950030641E063E080E00E94030641E064E0B6
S113096080E00E94030641E065E080E00E94030607
S113097041E066E080E00E94030641E067E080E039
S11309800E94030664E170E080E090E00E94DC07CE
S113099083E30E94540482E30E94540488E20E9488
S11309A054048CE00E94540486E00E94540482E0C3
S11309B00E94540481E00E9454040895CF93C82FE8
S11309C041E061E080E00E94820640E062E080E075
S11309D00E94820640E063E080E00E9482068BB3BE
S11309E09C2F907F8F70892B8BBB41E063E080E06C
S11309F00E94820661E070E080E090E00E94DC07E3
S1130A0040E063E080E00E94820620E1C29FC001D2
S1130A1011249BB39F70892B8BBB41E063E080E082
S1130A200E94820661E070E080E090E00E94DC07B2
S1130A3040E063E080E00E94820665E070E080E0D0
S1130A4090E00E94DC07CF9108950F931F93CF93FA
S1130A508C01C0E003C00E94DE04CF5FF801EC0FFC
S1130A60F11D80818111F7CFCF911F910F910895CE
S1130A70CF93DF9300D0CDB7DEB790E8998390ECA5
S1130A809A83E1E0F0E0EC0FFD1FE80FF11D808197
S1130A90860F0E9454040F900F90DF91CF91089518
S1130AA00F931F93CF938C01862F90E00896880FA5
S1130AB0880F880F0E945404C0E007C0F801EC0FAF
S1130AC0F11D80810E94DE04CF5FC830B8F3CF915E
S1130AD01F910F9108951F93CF93DF93CDB7DEB786
S1130AE02A970FB6F894DEBF0FBECDBF9923DCF56D
S1130AF090958095709561957F4F8F4F9F4F10E033
S1130B0013C02AE030E040E050E00E94E909E1E04F
S1130B10F0E0EC0FFD1FE10FF11D605D6083622FBB
S1130B20732F842F952F1F5F1616170618061906A4
S1130B3044F3E1E0F0E0EC0FFD1FE10FF11D8DE265
S1130B4080831F5F0DC0E12FF0E0319781E090E0DA
S1130B508C0F9D1FE80FF91F80810E94DE04115045
S1130B601111F1CF39C0611571058105910521F489
S1130B7080E30E94DE0430C0161617061806190614
S1130B80ACF02AC02AE030E040E050E00E94E909DD
S1130B90E1E0F0E0EC0FFD1FE10FF11D605D60830B
S1130BA0622F732F842F952F1F5F01C010E016163C
S1130BB017061806190634F30DC0E12FF0E031973B
S1130BC081E090E08C0F9D1FE80FF91F80810E9447
S1130BD0DE0411501111F1CF2A960FB6F894DEBF3E
S1130BE00FBECDBFDF91CF911F9108950E944900A0
S1130BF00E949D000E94ED000E9458010E94CF01B6
S1130C0080E090E00895442319F04130E9F174C084
S1130C10813099F028F08230E9F0833041F16EC0E0
S1130C202AB381E090E002C0880F991F6A95E2F729
S1130C30809582238ABB80E0089527B381E090E009
S1130C4002C0880F991F6A95E2F78095822387BBBB
S1130C5080E0089524B381E090E002C0880F991FDA
S1130C606A95E2F78095822384BB80E0089521B3DE
S1130C7081E090E002C0880F991F6A95E2F78095A1
S1130C80822381BB80E00895813091F028F0823086
S1130C90D9F0833029F134C02AB381E090E002C056
S1130CA0880F991F6A95E2F7822B8ABB80E008952A
S1130CB027B381E090E002C0880F991F6A95E2F79C
S1130CC0822B87BB80E0089524B381E090E002C0CA
S1130CD0880F991F6A95E2F7822B84BB80E0089500
S1130CE021B381E090E002C0880F991F6A95E2F772
S1130CF0822B81BB80E0089581E0089581E008950E
S1130D0081E00895442319F04130E9F174C0813041
S1130D1099F028F08230E9F0833041F16EC02BB3B2
S1130D2081E090E002C0880F991F6A95E2F78095F0
S1130D3082238BBB80E0089528B381E090E002C059
S1130D40880F991F6A95E2F78095822388BB80E01B
S1130D50089525B381E090E002C0880F991F6A9539
S1130D60E2F78095822385BB80E0089522B381E079
S1130D7090E002C0880F991F6A95E2F7809582235C
S1130D8082BB80E00895813091F028F08230D9F060
S1130D90833029F134C02BB381E090E002C0880F86
S1130DA0991F6A95E2F7822B8BBB80E0089528B3E4
S1130DB081E090E002C0880F991F6A95E2F7822BC8
S1130DC088BB80E0089525B381E090E002C0880FDD
S1130DD0991F6A95E2F7822B85BB80E0089522B3C0
S1130DE081E090E002C0880F991F6A95E2F7822B98
S1130DF082BB80E0089581E0089581E0089581E058
S1130E000895813099F028F08230E9F0833041F17F
S1130E1034C089B390E002C0959587956A95E2F74E
S1130E20817089BBFA01808380E0089586B390E0E5
S1130E3002C0959587956A95E2F7817086BBFA01A1
S1130E40808380E0089583B390E002C095958795F0
S1130E506A95E2F7817083BBFA01808380E008958C
S1130E6080B390E002C0959587956A95E2F781700A
S1130E7080BBFA01808380E0089581E00895813089
S1130E8091F028F08230D9F0833029F130C02BB3AF
S1130E9081E090E002C0880F991F6A95E2F78227EB
S1130EA08BBB80E0089528B381E090E002C0880FF6
S1130EB0991F6A95E2F7822788BB80E0089525B3DD
S1130EC081E090E002C0880F991F6A95E2F78227BB
S1130ED085BB80E0089522B381E090E002C0880FD2
S1130EE0991F6A95E2F7822782BB80E0089581E02A
S1130EF0089540E064E081E00E94030640E065E07C
S1130F0081E00E94030641E066E081E00E9403065E
S1130F1040E067E081E00E9403068DB180648DB9F2
S1130F208DB18F7E8DB98DB1877F8DB98DB18B7F5A
S1130F308DB90895779BFECF2FB1FC0120830895CE
S1130F400F931F93CF938C01C0E003C00E949A07B4
S1130F50CF5FC8018C0F911DFC0120812111F6CFB8
S1130F601082CF911F910F91089583B78F7783BF1C
S1130F7083B78F7B83BF83B7877F83BF83B78F7E1E
S1130F8083BF83B78F7D83BF80E0089583B781607B
S1130F9083BF83B78D7F83BF83B7846083BF80E0C3
S1130FA0089583B78E7F83BF83B78D7F83BF83B755
S1130FB08B7F83BF80E008950E9432092FE632E1DF
S1130FC043E851E40E948A080E9403096093B40133
S1130FD07093B5018093B6019093B70112BE0E943D
S1130FE0C60740E050E0BA010AC008B600FEFDCFD3
S1130FF088B7816088BF4F5F5F4F6F4F7F4F80918D
S1131000B4019091B501A091B601B091B701481710
S113101059076A077B0748F31092B4011092B5018F
S11310201092B6011092B7010E94D10780E0089592
S11310305058BB27AA270E9430080C94AA090E9482
S11310409C0938F00E94A30920F039F49F3F19F459
S113105026F40C9499090EF4E095E7FB0C9493099B
S1131060E92F0E94BB0958F3BA1762077307840774
S1131070950720F079F4A6F50C94DD090EF4E095BB
S11310800B2EBA2FA02D0B01B90190010C01CA013E
S1131090A0011124FF27591B99F0593F50F4503EE9
S11310A068F11A16F040A22F232F342F4427585FDB
S11310B0F3CF469537952795A795F0405395C9F7F3
S11310C07EF41F16BA0B620B730B840BBAF09150AB
S11310D0A1F0FF0FBB1F661F771F881FC2F70EC04A
S11310E0BA0F621F731F841F48F48795779567951D
S11310F0B795F7959E3F08F0B0CF9395880F08F009
S11311009927EE0F9795879508950E946F0908F423
S113111081E008950E949E080C94AA090E94A309E4
S113112058F00E949C0940F029F45F3F29F00C9488
S1131130930951110C94DE090C9499090E94BB097E
S113114068F39923B1F3552391F3951B550BBB27F2
S1131150AA2762177307840738F09F5F5F4F220F37
S1131160331F441FAA1FA9F335D00E2E3AF0E0E82E
S113117032D091505040E695001CCAF72BD0FE2F78
S113118029D0660F771F881FBB1F2617370748070C
S1131190AB07B0E809F0BB0B802DBF01FF279358C4
S11311A05F4F3AF09E3F510578F00C9493090C94EC
S11311B0DE095F3FE4F3983ED4F38695779567950F
S11311C0B795F7959F5FC9F7880F911D96958795F9
S11311D097F90895E1E0660F771F881FBB1F621718
S11311E073078407BA0720F0621B730B840BBA0BD6
S11311F0EE1F88F7E09508950E9403096894B111E1
S11312000C94DE0908950E94C30988F09F5798F052
S1131210B92F9927B751B0F0E1F0660F771F881FF7
S1131220991F1AF0BA95C9F714C0B13091F00E9411
S1131230DD09B1E008950C94DD09672F782F882724
S1131240B85F39F0B93FCCF3869577956795B39538
S1131250D9F73EF490958095709561957F4F8F4FA7
S11312609F4F0895E89409C097FB3EF490958095AC
S1131270709561957F4F8F4F9F4F9923A9F0F92F58
S113128096E9BB279395F695879577956795B795D6
S1131290F111F8CFFAF4BB0F11F460FF1BC06F5FBC
S11312A07F4F8F4F9F4F16C0882311F096E911C0CE
S11312B0772321F09EE8872F762F05C0662371F0EF
S11312C096E8862F70E060E02AF09A95660F771F03
S11312D0881FDAF7880F9695879597F90895990FDF
S11312E00008550FAA0BE0E8FEEF16161706E807EC
S11312F0F907C0F012161306E407F50798F0621B0D
S1131300730B840B950B39F40A2661F0232B242BE1
S1131310252B21F408950A2609F4A140A6958FEF00
S1131320811D811D089597F99F6780E870E060E052
S113133008959FEF80EC089500240A94161617066A
S113134018060906089500240A94121613061406B2
S113135005060895092E0394000C11F4882352F015
S1131360BB0F40F4BF2B11F460FF04C06F5F7F4FCD
S11313708F4F9F4F089557FD9058440F551F59F0B4
S11313805F3F71F04795880F97FB991F61F09F3F6E
S113139079F087950895121613061406551FF2CF97
S11313A04695F1DF08C0161617061806991FF1CFE7
S11313B086957105610508940895E894BB2766270E
S11313C07727CB0197F908950E946F0908F48FEFEE
S11313D00895052E97FB1EF400940E94000A57FD01
S11313E007D00E94170A07FC03D04EF40C94000A9D
S11313F050954095309521953F4F4F4F5F4F08953D
S113140090958095709561957F4F8F4F9F4F08956C
S1131410A29FB001B39FC001A39F700D811D112431
S1131420911DB29F700D811D1124911D0895A1E29B
S11314301A2EAA1BBB1BFD010DC0AA1FBB1FEE1F4A
S1131440FF1FA217B307E407F50720F0A21BB30B95
S1131450E40BF50B661F771F881F991F1A9469F711
S113146060957095809590959B01AC01BD01CF016D
S11314700895FB01DC018D91019080190110D9F3CD
S10B1480990B0895F894FFCFC5
S11314880101040E0E0E1F0004003030303000300D
S11314983030303030303030303030303030303040
S11314A830300030303030000080BB4500313233FA
S11314B834353637383930313233323134353637DA
S11314C80000401C46013132333435363738393060
S11314D83132333435363738390000A00C460131FF
S11314E830303133353536373832303039373635B0
S11314F83132002057454C434F4D4520544F20412D
S1131508544D202100496E73657274204120436153
S1131518726400456E74657220596F757220504963
S11315284E0050494E204E4F54204D415443484597
S113153844202100454E5445522054484520414DED
S11315484F554E5400434152442049532053544F5D
S11315584C454E00494E53554646494349454E5419
S1131568200046554E44004D4158205452414E5394
S1131578414354494F4E2000414D4F554E54204548
S11315885843454544454400415050524F564544FC
S1131598005452414E53414354494F4E004E45570F
S11315A82042414C414E4345203A00454A45435464
S11315B8494E472043415244005448495320495313
S11115C8204100465241554420434152440004
S9030000FC
