:100000000C942A000C9447000C9447000C94470071
:100010000C9447000C9447000C9447000C94470044
:100020000C9447000C9447000C9447000C94470034
:100030000C9447000C9447000C9447000C94470024
:100040000C9447000C9447000C9447000C94470014
:100050000C94470011241FBECFE5D8E0DEBFCDBF12
:1000600010E0A0E6B0E0EEEAF8E002C005900D92E4
:10007000A038B107D9F720E0A0E8B0E001C01D9298
:10008000A438B207E1F70E9484010C9455040C9443
:1000900000000E94C3020E9487020E94D10064E116
:1000A00070E080E090E00E94EA0289E790E00E9420
:1000B000590164EF71E080E090E00E94EA0281E083
:1000C0000E94880064E170E080E090E00E94EA0213
:1000D000089584E790E00E94AE026EE170E080E057
:1000E00090E00E94EA0280E690E00E94AE0261E0A9
:1000F00080E00E946C0184E790E00E94590161E079
:1001000081E00E946C0180E690E00E945901089510
:10011000CF93C82F0E94C30240E061E080E00E94BC
:10012000080240E062E080E00E94080240E063E0F4
:1001300080E00E9408028BB39C2F907F8F70892BE8
:100140008BBB41E063E080E00E94080261E070E068
:1001500080E090E00E94EA0240E063E080E00E94DC
:10016000080220E1C29FC00111249BB39F70892B1C
:100170008BBB41E063E080E00E94080261E070E038
:1001800080E090E00E94EA0240E063E080E00E94AC
:10019000080265E070E080E090E00E94EA02CF9102
:1001A00008950E94C30241E061E080E00E9489015D
:1001B00041E062E080E00E94890141E063E080E08C
:1001C0000E94890141E064E080E00E94890141E0F1
:1001D00065E080E00E94890141E066E080E00E94E5
:1001E000890141E067E080E00E94890164E170E0FC
:1001F00080E090E00E94EA0283E30E94880082E3AC
:100200000E94880088E20E9488008CE00E9488009A
:1002100086E00E94880082E00E94880081E00E94BF
:1002200088000895CF93C82F41E061E080E00E94EC
:10023000080240E062E080E00E94080240E063E0E3
:1002400080E00E9408028BB39C2F907F8F70892BD7
:100250008BBB41E063E080E00E94080261E070E057
:1002600080E090E00E94EA0240E063E080E00E94CB
:10027000080220E1C29FC00111249BB39F70892B0B
:100280008BBB41E063E080E00E94080261E070E027
:1002900080E090E00E94EA0240E063E080E00E949B
:1002A000080265E070E080E090E00E94EA02CF91F1
:1002B00008950F931F93CF938C01C0E003C00E9459
:1002C0001201CF5FF801EC0FF11D80818111F7CF92
:1002D000CF911F910F910895CF93DF9300D0CDB7A9
:1002E000DEB790E8998390EC9A83E1E0F0E0EC0FC0
:1002F000FD1FE80FF11D8081860F0E9488000F907E
:100300000F90DF91CF9108950E9449000E946900EB
:10031000FFCF442319F04130E9F174C0813099F0E6
:1003200028F08230E9F0833041F16EC02AB381E0D9
:1003300090E002C0880F991F6A95E2F780958223AA
:100340008ABB80E0089527B381E090E002C0880F67
:10035000991F6A95E2F78095822387BB80E0089514
:1003600024B381E090E002C0880F991F6A95E2F7FC
:100370008095822384BB80E0089521B381E090E0E2
:1003800002C0880F991F6A95E2F78095822381BB8E
:1003900080E00895813091F028F08230D9F08330E8
:1003A00029F134C02AB381E090E002C0880F991F80
:1003B0006A95E2F7822B8ABB80E0089527B381E03B
:1003C00090E002C0880F991F6A95E2F7822B87BBE5
:1003D00080E0089524B381E090E002C0880F991F67
:1003E0006A95E2F7822B84BB80E0089521B381E017
:1003F00090E002C0880F991F6A95E2F7822B81BBBB
:1004000080E0089581E0089581E0089581E00895F5
:10041000442319F04130E9F174C0813099F028F09B
:100420008230E9F0833041F16EC02BB381E090E07F
:1004300002C0880F991F6A95E2F7809582238BBBD3
:1004400080E0089528B381E090E002C0880F991FF2
:100450006A95E2F78095822388BB80E0089525B3F2
:1004600081E090E002C0880F991F6A95E2F78095BD
:10047000822385BB80E0089522B381E090E002C032
:10048000880F991F6A95E2F78095822382BB80E0EE
:100490000895813091F028F08230D9F0833029F12D
:1004A00034C02BB381E090E002C0880F991F6A9599
:1004B000E2F7822B8BBB80E0089528B381E090E0C7
:1004C00002C0880F991F6A95E2F7822B88BB80E0F3
:1004D000089525B381E090E002C0880F991F6A95C6
:1004E000E2F7822B85BB80E0089522B381E090E0A3
:1004F00002C0880F991F6A95E2F7822B82BB80E0C9
:10050000089581E0089581E0089581E0089540E034
:1005100064E081E00E94890140E065E081E00E94A2
:10052000890141E066E081E00E94890140E067E0E6
:1005300081E00E9489018DB180648DB98DB18F7E7B
:100540008DB98DB1877F8DB98DB18B7F8DB90895B0
:10055000779BFECF2FB1FC01208308950F931F934B
:10056000CF938C01C0E003C00E94A802CF5FC801F6
:100570008C0F911DFC0120812111F6CF1082CF91AB
:100580001F910F91089583B78F7783BF83B78F7BB8
:1005900083BF83B7877F83BF83B78F7E83BF83B7D4
:1005A0008F7D83BF80E0089583B7816083BF83B769
:1005B0008D7F83BF83B7846083BF80E0089583B756
:1005C0008E7F83BF83B78D7F83BF83B78B7F83BFCE
:1005D00080E008950E94C7032FE632E143E851E42A
:1005E0000E9426030E94980360938000709381000C
:1005F000809382009093830012BE0E94D40240E058
:1006000050E0BA010AC008B600FEFDCF88B781608D
:1006100088BF4F5F5F4F6F4F7F4F809180009091F9
:100620008100A0918200B0918300481759076A07A2
:100630007B0748F310928000109281001092820094
:10064000109283000E94DF0280E008950E943A0326
:100650000C941B040E94140458F00E940D0440F0F6
:1006600029F45F3F29F00C94040451110C944F04B9
:100670000C940A040E942C0468F39923B1F35523C7
:1006800091F3951B550BBB27AA27621773078407A5
:1006900038F09F5F5F4F220F331F441FAA1FA9F33B
:1006A00035D00E2E3AF0E0E832D091505040E69529
:1006B000001CCAF72BD0FE2F29D0660F771F881F8A
:1006C000BB1F261737074807AB07B0E809F0BB0B7D
:1006D000802DBF01FF2793585F4F3AF09E3F510591
:1006E00078F00C9404040C944F045F3FE4F3983EBC
:1006F000D4F3869577956795B795F7959F5FC9F77A
:10070000880F911D9695879597F90895E1E0660FFA
:10071000771F881FBB1F621773078407BA0720F073
:10072000621B730B840BBA0BEE1F88F7E0950895DC
:100730000E94340488F09F5798F0B92F9927B75139
:10074000B0F0E1F0660F771F881F991F1AF0BA9575
:10075000C9F714C0B13091F00E944E04B1E0089581
:100760000C944E04672F782F8827B85F39F0B93F73
:10077000CCF3869577956795B395D9F73EF4909528
:100780008095709561957F4F8F4F9F4F0895E894A6
:1007900009C097FB3EF490958095709561957F4FC9
:1007A0008F4F9F4F9923A9F0F92F96E9BB27939577
:1007B000F695879577956795B795F111F8CFFAF487
:1007C000BB0F11F460FF1BC06F5F7F4F8F4F9F4FB8
:1007D00016C0882311F096E911C0772321F09EE816
:1007E000872F762F05C0662371F096E8862F70E07C
:1007F00060E02AF09A95660F771F881FDAF7880F56
:100800009695879597F9089597F99F6780E870E026
:1008100060E008959FEF80EC089500240A94161676
:10082000170618060906089500240A9412161306DE
:10083000140605060895092E0394000C11F488236C
:1008400052F0BB0F40F4BF2B11F460FF04C06F5F88
:100850007F4F8F4F9F4F089557FD9058440F551F5E
:1008600059F05F3F71F04795880F97FB991F61F032
:100870009F3F79F087950895121613061406551FA9
:10088000F2CF4695F1DF08C0161617061806991F15
:10089000F1CF86957105610508940895E894BB270A
:0E08A00066277727CB0197F90895F894FFCFCC
:1008AE00303030303030303030303030303030303A
:1008BE003030300030303030002041544D20210097
:00000001FF
