:100000000C942A000C9447000C9447000C94470071
:100010000C9447000C9447000C9447000C94470044
:100020000C9447000C9447000C9447000C94470034
:100030000C9447000C9447000C9447000C94470024
:100040000C9447000C9447000C9447000C94470014
:100050000C94470011241FBECFE5D8E0DEBFCDBF12
:1000600012E0A0E6B0E0ECEAFCE002C005900D92E0
:10007000A432B107D9F722E0A4E2B2E001C01D9298
:10008000AA32B207E1F70E9441020C9454060C9484
:1000900000000E944E040E94B1040E94F8030E94D6
:1000A000A70160E081E00E94840141E060E080E01F
:1000B0000E949C0240E060E080E00E941B030895E3
:1000C000CF93DF9300D0CDB7DEB719821A8240E01C
:1000D000BE016F5F7F4F80E090E00E94EA0189815E
:1000E0008F3F31F487E990E00E94EF0480E01CC06C
:1000F0008231A9F48DEC90E00E94EF04CE010296CB
:100100000E9402058A81823361F0813361F089E0C7
:1001100091E00E94EF0480E090E00E94540680E0AD
:1001200003C082E001C081E00F900F90DF91CF917A
:100130000895CF93DF938EE191E00E94EF048CE469
:1001400091E00E94EF048EE790E00E940805D0E065
:100150003DC084E691E00E94EF0482E990E00E94B5
:10016000080587E891E00E94EF0489E790E00E948B
:100170000805C0E080E00AC0E82FF0E0EE56FF4F2F
:1001800090819F529B3008F0C1E08F5F8430A0F3D4
:1001900069E770E082E990E00E944B0680932402B8
:1001A000811108C0C11106C083EA91E00E94EF04EA
:1001B00081E00FC0C13029F482EC91E00E94EF048D
:1001C00004C08AEE91E00E94EF04DF5FD33008F2B2
:1001D00080E0DF91CF91089581E092E00E94EF04EA
:1001E0000895CF93DF9340E062E180E090E00E94C9
:1001F000AA0168E270E080E090E00E947504C0E02F
:10020000D0E011C0FE01EE56FF4F40E06081CE010C
:1002100080519F4F0E94AA0164E170E080E090E06D
:100220000E9475042196C430D10560F3C0E0D0E08F
:1002300011C0FE01E258FF4F40E06081CE018054C2
:100240009F4F0E94AA0164E170E080E090E00E946C
:1002500075042196C431D10560F3DF91CF910895E3
:10026000CF93DF93C0E0D0E010C0BE016C587F4F49
:1002700040E0CE0180519F4F0E94EA0168E270E0A9
:1002800080E090E00E9475042196C430D10568F3A7
:10029000C0E0D0E010C0BE01605A7F4F40E0CE0108
:1002A00080549F4F0E94EA0168E270E080E090E095
:1002B0000E9475042196C431D10568F3DF91CF9176
:1002C000089541E060E080E00E941B0308956EE124
:1002D00070E080E090E00E9475040E942B0484E7A7
:1002E00090E00E943B040E9431046EE170E080E0E7
:1002F00090E00E9475040E942B0480E690E00E942A
:100300003B040E943104089540E00E949C0208953D
:100310000F931F93CF93DF931F92CDB7DEB78A0160
:100320001982AE014F5F5F4F0E949A03811105C091
:100330008981F801808381E004C08981F80180838C
:1003400080E00F90DF91CF911F910F9108950E944F
:10035000D80308950F931F93CF93DF93182FD92FAE
:10036000062FC42F0E94DE030E94F503883021F57A
:100370008C2F90E0880F991F806A0E94EB030E94E7
:10038000F5038831D9F48D2F0E94EB030E94F50309
:100390008832B1F4812F0E94EB030E94F50388326A
:1003A00089F4802F0E94EB030E94F503883261F4E8
:1003B0000E94F20381E009C080E007C080E005C030
:1003C00080E003C080E001C080E0DF91CF911F9109
:1003D0000F910895EF92FF920F931F93CF93DF93A6
:1003E000082F192F7B01C42F0E94DE030E94F50302
:1003F000883099F5D0E0CC0FDD1F8C2F806A0E94E9
:10040000EB030E94F503883151F5812F0E94EB0325
:100410000E94F503883229F5802F0E94EB030E9489
:10042000F503883201F50E94DE030E94F503803156
:10043000E1F48C2F816A0E94EB030E94F503803463
:10044000B1F40E94E403F70180830E94F50388352C
:1004500081F40E94F20381E00DC080E00BC080E0D7
:1004600009C080E007C080E005C080E003C080E0F4
:1004700001C080E0DF91CF911F910F91FF90EF902D
:1004800008950E9449000E94600081111FC00E94CF
:100490009900811106C00E94EC0080E090E00E946B
:1004A00054060E94F1000E9430010E94610145E261
:1004B00052E060E070E081E090E00E94880180916D
:1004C00025028823A1F30E94670135C08230F9F428
:1004D0000E949900811106C00E94EC0081E090E02A
:1004E0000E9454060E94F1000E9430010E946101A6
:1004F00045E252E060E070E081E090E00E94880117
:10050000809125028823A1F30E94670114C08130E5
:1005100091F40E9430010E94610145E252E060E0E6
:1005200070E081E090E00E9488018091250288239C
:10053000A1F30E946701FFCF442319F04130E9F194
:1005400074C0813099F028F08230E9F0833041F1B5
:100550006EC02AB381E090E002C0880F991F6A95AF
:10056000E2F7809582238ABB80E0089527B381E07B
:1005700090E002C0880F991F6A95E2F78095822368
:1005800087BB80E0089524B381E090E002C0880F2B
:10059000991F6A95E2F78095822384BB80E00895D5
:1005A00021B381E090E002C0880F991F6A95E2F7BD
:1005B0008095822381BB80E00895813091F028F0FE
:1005C0008230D9F0833029F134C02AB381E090E041
:1005D00002C0880F991F6A95E2F7822B8ABB80E0E0
:1005E000089527B381E090E002C0880F991F6A95B3
:1005F000E2F7822B87BB80E0089524B381E090E08E
:1006000002C0880F991F6A95E2F7822B84BB80E0B5
:10061000089521B381E090E002C0880F991F6A9588
:10062000E2F7822B81BB80E0089581E0089581E0AC
:10063000089581E00895442319F04130E9F174C030
:10064000813099F028F08230E9F0833041F16EC0BA
:100650002BB381E090E002C0880F991F6A95E2F702
:10066000809582238BBB80E0089528B381E090E0E1
:1006700002C0880F991F6A95E2F78095822388BB94
:1006800080E0089525B381E090E002C0880F991FB3
:100690006A95E2F78095822385BB80E0089522B3B6
:1006A00081E090E002C0880F991F6A95E2F780957B
:1006B000822382BB80E00895813091F028F082305F
:1006C000D9F0833029F134C02BB381E090E002C02F
:1006D000880F991F6A95E2F7822B8BBB80E0089503
:1006E00028B381E090E002C0880F991F6A95E2F775
:1006F000822B88BB80E0089525B381E090E002C0A2
:10070000880F991F6A95E2F7822B85BB80E00895D8
:1007100022B381E090E002C0880F991F6A95E2F74A
:10072000822B82BB80E0089581E0089581E00895E6
:1007300081E00895813099F028F08230E9F083302B
:1007400041F134C089B390E002C0959587956A95D0
:10075000E2F7817089BBFA01808380E0089586B357
:1007600090E002C0959587956A95E2F7817086BB07
:10077000FA01808380E0089583B390E002C09595EC
:1007800087956A95E2F7817083BBFA01808380E0E8
:10079000089580B390E002C0959587956A95E2F739
:1007A000817080BBFA01808380E0089581E0089524
:1007B00082E080B911B884E086BF089584EA86BFDC
:1007C00006B607FEFDCF089584E886BF06B607FE8D
:1007D000FDCF83B1089583B984E886BF06B607FECE
:1007E000FDCF089584E986BF089581B1887F08957B
:1007F00041E064E081E00E949C0241E065E081E02C
:100800000E949C0240E066E081E00E949C0241E080
:1008100067E081E00E949C028DB181608DB98DB14D
:1008200082608DB98EB18E7F8EB98EB18E7F8EB97A
:100830008DB18F778DB98DB18F7D8DB98DB1877F5A
:100840008DB98DB18B7F8DB98DB180618DB98DB131
:1008500080648DB9089540E064E081E00E941B034C
:10086000089541E064E081E00E941B0308958FB980
:10087000779BFECF08950F931F93CF938C01C0E019
:1008800003C00E943704CF5FF801EC0FF11D808197
:100890008111F7CFCF911F910F91089583B78F7773
:1008A00083BF83B78F7B83BF83B7877F83BF83B7C4
:1008B0008F7E83BF83B78F7D83BF80E0089583B72A
:1008C000816083BF83B78D7F83BF83B7846083BF1D
:1008D00080E0089583B78E7F83BF83B78D7F83BF0A
:1008E00083B78B7F83BF80E008950E94BD052FE60C
:1008F00032E143E851E40E941C050E948E0560939A
:10090000260270932702809328029093290212BE38
:100910000E945F0440E050E0BA010AC008B600FE41
:10092000FDCF88B7816088BF4F5F5F4F6F4F7F4FAC
:100930008091260290912702A0912802B09129026D
:10094000481759076A077B0748F31092260210924E
:10095000270210922802109229020E946A0480E065
:10096000089541E061E083E00E949C0240E060E085
:1009700083E00E949C0283E389B98AB188608AB9C6
:100980008AB180618AB980B5806880BD80B5826097
:1009900080BD80B5846080BD8AB18B7F8AB980B507
:1009A0008F7E80BD80B58F7D80BD80B5877F80BD07
:1009B00080B58F7B80BD8BB18D7F8BB98BB18E7FE6
:1009C0008BB98AB18F778AB98AB18F7B8AB98AB19C
:1009D0008F7D8AB908955D9BFECF8CB908950F93E2
:1009E0001F93CF938C01C0E003C00E94EB04CF5F44
:1009F000F801EC0FF11D80818111F7CFCF911F918C
:100A00000F9108955F9BFECF2CB1FC0120830895C8
:100A10000F931F93CF938C01C0E003C00E94020587
:100A2000CF5FC8018C0F911DFC0120812111F6CFF1
:100A3000CF911F910F9108950E9430050C941106DB
:100A40000E940A0658F00E94030640F029F45F3F16
:100A500029F00C94FA0551110C9445060C940006EB
:100A60000E94220668F39923B1F3552391F3951B55
:100A7000550BBB27AA2762177307840738F09F5FBF
:100A80005F4F220F331F441FAA1FA9F335D00E2E2C
:100A90003AF0E0E832D091505040E695001CCAF799
:100AA0002BD0FE2F29D0660F771F881FBB1F26175C
:100AB00037074807AB07B0E809F0BB0B802DBF0133
:100AC000FF2793585F4F3AF09E3F510578F00C9402
:100AD000FA050C9445065F3FE4F3983ED4F38695FF
:100AE00077956795B795F7959F5FC9F7880F911D23
:100AF0009695879597F90895E1E0660F771F881F0F
:100B0000BB1F621773078407BA0720F0621B730BC1
:100B1000840BBA0BEE1F88F7E09508950E942A0611
:100B200088F09F5798F0B92F9927B751B0F0E1F0AE
:100B3000660F771F881F991F1AF0BA95C9F714C05E
:100B4000B13091F00E944406B1E008950C9444063F
:100B5000672F782F8827B85F39F0B93FCCF3869597
:100B600077956795B395D9F73EF4909580957095F4
:100B700061957F4F8F4F9F4F0895E89409C097FB71
:100B80003EF490958095709561957F4F8F4F9F4F64
:100B90009923A9F0F92F96E9BB279395F6958795A8
:100BA00077956795B795F111F8CFFAF4BB0F11F46B
:100BB00060FF1BC06F5F7F4F8F4F9F4F16C0882312
:100BC00011F096E911C0772321F09EE8872F762F48
:100BD00005C0662371F096E8862F70E060E02AF089
:100BE0009A95660F771F881FDAF7880F9695879575
:100BF00097F9089597F99F6780E870E060E008959D
:100C00009FEF80EC089500240A9416161706180624
:100C10000906089500240A94121613061406050600
:100C20000895092E0394000C11F4882352F0BB0F91
:100C300040F4BF2B11F460FF04C06F5F7F4F8F4FF4
:100C40009F4F089557FD9058440F551F59F05F3F2F
:100C500071F04795880F97FB991F61F09F3F79F0DE
:100C600087950895121613061406551FF2CF469560
:100C7000F1DF08C0161617061806991FF1CF8695E2
:100C80007105610508940895E894BB2766277727C6
:100C9000CB0197F90895FB01DC018D91019080193A
:0C0CA0000110D9F3990B0895F894FFCFD0
:100CAC003030303030303030303030303030303038
:100CBC0030303000303030300030303030003030B8
:100CCC003030303030303030303030303030303018
:100CDC00300030303030000D0A20466972737420B9
:100CEC00696E73657274696F6E20666F72207468BA
:100CFC0069732063617264207761697420746F205A
:100D0C0070726F6772616D2069740D0A000D0A5460
:100D1C006F20726570726F6772616D20796F75727A
:100D2C0020636172642070726573732032202C20F2
:100D3C00666F722075736572206D6F6465207072BA
:100D4C006573732031200D0A000D0A4E6F742076E6
:100D5C00616C69642063686F6963650D0A000D0A34
:100D6C0020202020202020202020796F75206172E7
:100D7C006520696E207468652070726F6772616D92
:100D8C006D696E67206D6F64650D0A00506C65614E
:100D9C00736520656E7465722063617264205041C6
:100DAC004E0D0A000D0A506C6561736520656E74FA
:100DBC006572206E657720342D6E756D6265727369
:100DCC002050494E0D0A000D0A506C656173652068
:100DDC00636F6E6669726D20796F75722050494E23
:100DEC000D0A000D0A4461746120726563656976B1
:100DFC006564207375636365737366756C6C790DCC
:100E0C000A000D0A204C657474657273206E6F7441
:100E1C0020616C6C6F776564202C206E756D62653B
:100E2C007273206F6E6C790D0A000D0A50494E20BA
:100E3C006469646E2774206D6174636820210D0AE7
:100E4C00000D0A20536F72727920636172642070F6
:100E5C00726F6772616D6D696E67206661696C6532
:040E6C00640D0A0007
:00000001FF
