:100000000C942A000C9447000C9447000C94470071
:100010000C9447000C9447000C9447000C94470044
:100020000C9447000C9447000C9447000C94470034
:100030000C9447000C9447000C9447000C94470024
:100040000C9447000C9447000C9447000C94470014
:100050000C94470011241FBECFE5D8E0DEBFCDBF12
:1000600012E0A0E6B0E0E4EAFCE002C005900D92E8
:10007000A432B107D9F722E0A4E2B2E001C01D9298
:10008000AA32B207E1F70E943D020C9450060C948C
:1000900000000E944A040E94AD040E94F4030E94E2
:1000A000A30160E081E00E94800141E060E080E027
:1000B0000E94980240E060E080E00E9417030895EB
:1000C000CF93DF9300D0CDB7DEB719821A8240E01C
:1000D000BE016F5F7F4F80EC90E00E94E601898156
:1000E0008F3F31F487E990E00E94EB0480E01CC070
:1000F0008231A9F48DEC90E00E94EB04CE010296CF
:100100000E94FE048A81823361F0813361F089E0CC
:1001100091E00E94EB0480E090E00E94500680E0B5
:1001200003C082E001C081E00F900F90DF91CF917A
:100130000895CF93DF938EE191E00E94EB048CE46D
:1001400091E00E94EB048EE790E00E940405D0E06D
:100150003DC084E691E00E94EB0482E990E00E94B9
:10016000040587E891E00E94EB0489E790E00E9493
:100170000405C0E080E00AC0E82FF0E0EE56FF4F33
:1001800090819F529B3008F0C1E08F5F8430A0F3D4
:1001900069E770E082E990E00E94470680932402BC
:1001A000811108C0C11106C083EA91E00E94EB04EE
:1001B00081E00FC0C13029F482EC91E00E94EB0491
:1001C00004C08AEE91E00E94EB04DF5FD33008F2B6
:1001D00080E0DF91CF91089581E092E00E94EB04EE
:1001E0000895CF93DF9340E062E180EC90E00E94BD
:1001F000A60168E270E080E090E00E947104C0E037
:10020000D0E011C0FE01EE56FF4F40E06081CE010C
:1002100080519F4F0E94A60164E170E080E090E071
:100220000E9471042196C430D10560F3C0E0D0E093
:100230000FC0FE01E258FF4F40E06081CE010E94F6
:10024000A60164E170E080E090E00E9471042196D4
:10025000C431D10570F3DF91CF910895CF93DF932F
:10026000C0E0D0E010C0BE016C587F4F40E0CE012E
:1002700080519F4F0E94E60168E270E080E090E0CC
:100280000E9471042196C430D10568F3C0E0D0E02B
:100290000EC0BE01605A7F4F40E0CE010E94E601D1
:1002A00068E270E080E090E00E9471042196C43121
:1002B000D10578F3DF91CF91089541E060E080E0CF
:1002C0000E94170308956EE170E080E090E00E94C4
:1002D00071040E94270484E790E00E9437040E9482
:1002E0002D046EE170E080E090E00E9471040E94B5
:1002F000270480E690E00E9437040E942D040895B0
:1003000040E00E94980208950F931F93CF93DF93CC
:100310001F92CDB7DEB78A011982AE014F5F5F4FE2
:100320000E949603811105C08981F801808381E0D4
:1003300004C08981F801808380E00F90DF91CF9124
:100340001F910F9108950E94D40308950F931F9356
:10035000CF93DF93182FD92F062FC42F0E94DA03D3
:100360000E94F103883021F58C2F90E0880F991FAF
:10037000806A0E94E7030E94F1038831D9F48D2F2F
:100380000E94E7030E94F1038832B1F4812F0E949A
:10039000E7030E94F103883289F4802F0E94E7036B
:1003A0000E94F103883261F40E94EE0381E009C0EB
:1003B00080E007C080E005C080E003C080E001C0AD
:1003C00080E0DF91CF911F910F910895EF92FF92FE
:1003D0000F931F93CF93DF93082F192F7B01C42F07
:1003E0000E94DA030E94F103883099F5D0E0CC0F27
:1003F000DD1F8C2F806A0E94E7030E94F103883181
:1004000051F5812F0E94E7030E94F103883229F5FC
:10041000802F0E94E7030E94F103883201F50E94B9
:10042000DA030E94F1038031E1F48C2F816A0E948B
:10043000E7030E94F1038034B1F40E94E003F70166
:1004400080830E94F103883581F40E94EE0381E0ED
:100450000DC080E00BC080E009C080E007C080E0F4
:1004600005C080E003C080E001C080E0DF91CF9153
:100470001F910F91FF90EF9008950E9449000E94F4
:10048000600081111FC00E949900811106C00E9466
:10049000EC0080E090E00E9450060E94F1000E9473
:1004A0002E010E945D0145E252E060E070E081E0D3
:1004B00090E00E948401809125028823A1F30E948C
:1004C000630135C08230F9F40E949900811106C0A1
:1004D0000E94EC0081E090E00E9450060E94F10032
:1004E0000E942E010E945D0145E252E060E070E052
:1004F00081E090E00E948401809125028823A1F38D
:100500000E94630114C0813091F40E942E010E9468
:100510005D0145E252E060E070E081E090E00E9421
:100520008401809125028823A1F30E946301FFCFFB
:10053000442319F04130E9F174C0813099F028F07A
:100540008230E9F0833041F16EC02AB381E090E05F
:1005500002C0880F991F6A95E2F7809582238ABBB3
:1005600080E0089527B381E090E002C0880F991FD2
:100570006A95E2F78095822387BB80E0089524B3D3
:1005800081E090E002C0880F991F6A95E2F780959C
:10059000822384BB80E0089521B381E090E002C013
:1005A000880F991F6A95E2F78095822381BB80E0CE
:1005B0000895813091F028F08230D9F0833029F10C
:1005C00034C02AB381E090E002C0880F991F6A9579
:1005D000E2F7822B8ABB80E0089527B381E090E0A8
:1005E00002C0880F991F6A95E2F7822B87BB80E0D3
:1005F000089524B381E090E002C0880F991F6A95A6
:10060000E2F7822B84BB80E0089521B381E090E083
:1006100002C0880F991F6A95E2F7822B81BB80E0A8
:10062000089581E0089581E0089581E008954423CC
:1006300019F04130E9F174C0813099F028F082302E
:10064000E9F0833041F16EC02BB381E090E002C04D
:10065000880F991F6A95E2F7809582238BBB80E013
:10066000089528B381E090E002C0880F991F6A9531
:10067000E2F78095822388BB80E0089525B381E06E
:1006800090E002C0880F991F6A95E2F78095822357
:1006900085BB80E0089522B381E090E002C0880F1E
:1006A000991F6A95E2F78095822382BB80E00895C6
:1006B000813091F028F08230D9F0833029F134C0B4
:1006C0002BB381E090E002C0880F991F6A95E2F792
:1006D000822B8BBB80E0089528B381E090E002C0BC
:1006E000880F991F6A95E2F7822B88BB80E00895F6
:1006F00025B381E090E002C0880F991F6A95E2F768
:10070000822B85BB80E0089522B381E090E002C097
:10071000880F991F6A95E2F7822B82BB80E00895CB
:1007200081E0089581E0089581E00895813099F095
:1007300028F08230E9F0833041F134C089B390E091
:1007400002C0959587956A95E2F7817089BBFA0199
:10075000808380E0089586B390E002C095958795E8
:100760006A95E2F7817086BBFA01808380E0089584
:1007700083B390E002C0959587956A95E2F7817002
:1007800083BBFA01808380E0089580B390E002C0CB
:10079000959587956A95E2F7817080BBFA01808311
:1007A00080E0089581E0089582E080B911B884E086
:1007B00086BF089584EA86BF06B607FEFDCF08957A
:1007C00084E886BF06B607FEFDCF83B1089583B9DE
:1007D00084E886BF06B607FEFDCF089584E986BF8C
:1007E000089581B1887F089541E064E081E00E942E
:1007F000980241E065E081E00E94980240E066E0F6
:1008000081E00E94980241E067E081E00E94980246
:100810008DB181608DB98DB182608DB98EB18E7FC1
:100820008EB98EB18E7F8EB98DB18F778DB98DB126
:100830008F7D8DB98DB1877F8DB98DB18B7F8DB94E
:100840008DB180618DB98DB180648DB9089540E01E
:1008500064E081E00E941703089541E064E081E0D4
:100860000E94170308958FB9779BFECF08950F93C9
:100870001F93CF938C01C0E003C00E943304CF5F6D
:10088000F801EC0FF11D80818111F7CFCF911F91FD
:100890000F91089583B78F7783BF83B78F7B83BF13
:1008A00083B7877F83BF83B78F7E83BF83B78F7DF7
:1008B00083BF80E0089583B7816083BF83B78D7F56
:1008C00083BF83B7846083BF80E0089583B78E7F42
:1008D00083BF83B78D7F83BF83B78B7F83BF80E068
:1008E00008950E94B9052FE632E143E851E40E94E1
:1008F00018050E948A056093260270932702809350
:1009000028029093290212BE0E945B0440E050E04E
:10091000BA010AC008B600FEFDCF88B7816088BF63
:100920004F5F5F4F6F4F7F4F80912602909127025C
:10093000A0912802B0912902481759076A077B073E
:1009400048F3109226021092270210922802109269
:1009500029020E94660480E0089541E061E083E09E
:100960000E94980240E060E083E00E94980283E3E6
:1009700089B98AB188608AB98AB180618AB980B53B
:10098000806880BD80B5826080BD80B5846080BD98
:100990008AB18B7F8AB980B58F7E80BD80B58F7D0F
:1009A00080BD80B5877F80BD80B58F7B80BD8BB1DA
:1009B0008D7F8BB98BB18E7F8BB98AB18F778AB9D6
:1009C0008AB18F7B8AB98AB18F7D8AB908955D9B80
:1009D000FECF8CB908950F931F93CF938C01C0E085
:1009E00003C00E94E704CF5FF801EC0FF11D808186
:1009F0008111F7CFCF911F910F9108955F9BFECF8B
:100A00002CB1FC01208308950F931F93CF938C0189
:100A1000C0E003C00E94FE04CF5FC8018C0F911D8F
:100A2000FC0120812111F6CFCF911F910F910895E4
:100A30000E942C050C940D060E94060658F00E9498
:100A4000FF0540F029F45F3F29F00C94F6055111A1
:100A50000C9441060C94FC050E941E0668F3992331
:100A6000B1F3552391F3951B550BBB27AA276217AA
:100A70007307840738F09F5F5F4F220F331F441FB7
:100A8000AA1FA9F335D00E2E3AF0E0E832D09150EB
:100A90005040E695001CCAF72BD0FE2F29D0660FD8
:100AA000771F881FBB1F261737074807AB07B0E81B
:100AB00009F0BB0B802DBF01FF2793585F4F3AF021
:100AC0009E3F510578F00C94F6050C9441065F3F6B
:100AD000E4F3983ED4F3869577956795B795F795A7
:100AE0009F5FC9F7880F911D9695879597F908958F
:100AF000E1E0660F771F881FBB1F6217730784072B
:100B0000BA0720F0621B730B840BBA0BEE1F88F739
:100B1000E09508950E94260688F09F5798F0B92F17
:100B20009927B751B0F0E1F0660F771F881F991F22
:100B30001AF0BA95C9F714C0B13091F00E9440067E
:100B4000B1E008950C944006672F782F8827B85F8E
:100B500039F0B93FCCF3869577956795B395D9F77A
:100B60003EF490958095709561957F4F8F4F9F4F84
:100B70000895E89409C097FB3EF490958095709590
:100B800061957F4F8F4F9F4F9923A9F0F92F96E9D9
:100B9000BB279395F695879577956795B795F1114E
:100BA000F8CFFAF4BB0F11F460FF1BC06F5F7F4FEB
:100BB0008F4F9F4F16C0882311F096E911C07723FD
:100BC00021F09EE8872F762F05C0662371F096E806
:100BD000862F70E060E02AF09A95660F771F881FD5
:100BE000DAF7880F9695879597F9089597F99F6793
:100BF00080E870E060E008959FEF80EC08950024A5
:100C00000A941616170618060906089500240A9471
:100C100012161306140605060895092E0394000CF7
:100C200011F4882352F0BB0F40F4BF2B11F460FF86
:100C300004C06F5F7F4F8F4F9F4F089557FD9058AF
:100C4000440F551F59F05F3F71F04795880F97FB90
:100C5000991F61F09F3F79F087950895121613064A
:100C60001406551FF2CF4695F1DF08C01616170679
:100C70001806991FF1CF86957105610508940895AE
:100C8000E894BB2766277727CB0197F90895FB01E6
:100C9000DC018D91019080190110D9F3990B089511
:040CA000F894FFCFF6
:100CA4003030303030303030303030303030303040
:100CB40030303000303030300030303030003030C0
:100CC4003030303030303030303030303030303020
:100CD400300030303030000D0A20466972737420C1
:100CE400696E73657274696F6E20666F72207468C2
:100CF40069732063617264207761697420746F2062
:100D040070726F6772616D2069740D0A000D0A5468
:100D14006F20726570726F6772616D20796F757282
:100D240020636172642070726573732032202C20FA
:100D3400666F722075736572206D6F6465207072C2
:100D44006573732031200D0A000D0A4E6F742076EE
:100D5400616C69642063686F6963650D0A000D0A3C
:100D640020202020202020202020796F75206172EF
:100D74006520696E207468652070726F6772616D9A
:100D84006D696E67206D6F64650D0A00506C656156
:100D9400736520656E7465722063617264205041CE
:100DA4004E0D0A000D0A506C6561736520656E7402
:100DB4006572206E657720342D6E756D6265727371
:100DC4002050494E0D0A000D0A506C656173652070
:100DD400636F6E6669726D20796F75722050494E2B
:100DE4000D0A000D0A4461746120726563656976B9
:100DF4006564207375636365737366756C6C790DD4
:100E04000A000D0A204C657474657273206E6F7449
:100E140020616C6C6F776564202C206E756D626543
:100E24007273206F6E6C790D0A000D0A50494E20C2
:100E34006469646E2774206D6174636820210D0AEF
:100E4400000D0A20536F72727920636172642070FE
:100E5400726F6772616D6D696E67206661696C653A
:040E6400640D0A000F
:00000001FF
