S00B000041544D2E7372656337
S11300000C942A000C9447000C9447000C9447006D
S11300100C9447000C9447000C9447000C94470040
S11300200C9447000C9447000C9447000C94470030
S11300300C9447000C9447000C9447000C94470020
S11300400C9447000C9447000C9447000C94470010
S11300500C94470011241FBECFE5D8E0DEBFCDBF0E
S113006011E0A0E6B0E0E2E7FAE002C005900D92EC
S1130070A235B107D9F721E0A2E5B1E001C01D9294
S1130080A735B207E1F70E94B2010C9437050C942E
S113009000000E9431030E9494030E94DB020E942C
S11300A018010895CF93DF9387E990E00E94D2036B
S11300B085EC90E00E94D2038EE790E00E94EB036F
S11300C0C0E036C08DED90E00E94D20382E990E05A
S11300D00E94EB0380E091E00E94D20389E790E064
S11300E00E94EB03D0E080E00AC0E82FF0E0EE5677
S11300F0FF4F90819153983008F0D1E08F5F8430A6
S1130100A0F369E770E082E990E00E942E058093F5
S11301105201811107C0D11105C08CE191E00E9408
S1130120D20308C0CF5F21F08BE391E00E94D20399
S1130130C33040F2DF91CF910895CF93DF93C0E0B5
S1130140D0E011C0FE01EE56FF4F40E06081CE01C9
S11301508F5E9C4F0E941B0164E170E080E090E0A0
S11301600E9458032196C430D10560F3C0E0D0E06A
S113017011C0FE01E258FF4F40E06081CE01875E6E
S11301809C4F0E941B0164E170E080E090E00E94BB
S113019058032196C431D10560F3DF91CF910895BE
S11301A0CF93DF93C0E0D0E010C0BE016C587F4F06
S11301B040E0CE018F5E9C4F0E945B0164E170E0E1
S11301C080E090E00E9458032196C430D10568F382
S11301D0C0E0D0E010C0BE01605A7F4F40E0CE01C5
S11301E0875E9C4F0E945B0164E170E080E090E0D8
S11301F00E9458032196C431D10568F3DF91CF9151
S113020008950E940E0382E990E00E941E030E945A
S113021014036EE170E080E090E00E9458030E94B5
S11302200E038EE790E00E941E030E9414030895BB
S11302300E94BB0208950F931F93CF93DF93182F4F
S1130240D92F062FC42F0E94C1020E94D8028830E1
S113025021F58C2F90E0880F991F806A0E94CE02AE
S11302600E94D8028831D9F48D2F0E94CE020E94B8
S1130270D8028832B1F4812F0E94CE020E94D802A3
S1130280883289F4802F0E94CE020E94D8028832DC
S113029061F40E94D50281E009C080E007C080E0DB
S11302A005C080E003C080E001C080E0DF91CF9111
S11302B01F910F910895EF92FF920F931F93CF9385
S11302C0DF93082F192F7B01C42F0E94C1020E94C3
S11302D0D802883099F5D0E0CC0FDD1F8C2F806ACE
S11302E00E94CE020E94D802883151F5812F0E94CB
S11302F0CE020E94D802883229F5802F0E94CE02B5
S11303000E94D802883201F50E94C1020E94D802DC
S11303108031E1F48C2F816A0E94CE020E94D802BF
S11303208034B1F40E94C702F70180830E94D8028E
S1130330883581F40E94D50281E00DC080E00BC0B5
S113034080E009C080E007C080E005C080E003C011
S113035080E001C080E0DF91CF911F910F91FF9069
S1130360EF9008950E9449000E9452000E949D004F
S11303700E94D0000E940101FFCF442319F04130B4
S1130380E9F174C0813099F028F08230E9F08330CB
S113039041F16EC02AB381E090E002C0880F991F3A
S11303A06A95E2F7809582238ABB80E0089527B39B
S11303B081E090E002C0880F991F6A95E2F780956A
S11303C0822387BB80E0089524B381E090E002C0DB
S11303D0880F991F6A95E2F78095822384BB80E099
S11303E0089521B381E090E002C0880F991F6A95B7
S11303F0E2F78095822381BB80E00895813091F0FB
S113040028F08230D9F0833029F134C02AB381E056
S113041090E002C0880F991F6A95E2F7822B8ABB8D
S113042080E0089527B381E090E002C0880F991F0F
S11304306A95E2F7822B87BB80E0089524B381E0BC
S113044090E002C0880F991F6A95E2F7822B84BB63
S113045080E0089521B381E090E002C0880F991FE5
S11304606A95E2F7822B81BB80E0089581E00895CC
S113047081E0089581E00895442319F04130E9F1C1
S113048074C0813099F028F08230E9F0833041F172
S11304906EC02BB381E090E002C0880F991F6A956B
S11304A0E2F7809582238BBB80E0089528B381E036
S11304B090E002C0880F991F6A95E2F78095822325
S11304C088BB80E0089525B381E090E002C0880FE6
S11304D0991F6A95E2F78095822385BB80E0089591
S11304E022B381E090E002C0880F991F6A95E2F779
S11304F08095822382BB80E00895813091F028F0BA
S11305008230D9F0833029F134C02BB381E090E0FC
S113051002C0880F991F6A95E2F7822B8BBB80E09B
S1130520089528B381E090E002C0880F991F6A956E
S1130530E2F7822B88BB80E0089525B381E090E048
S113054002C0880F991F6A95E2F7822B85BB80E071
S1130550089522B381E090E002C0880F991F6A9544
S1130560E2F7822B82BB80E0089581E0089581E068
S1130570089581E0089582E080B911B884E086BFCF
S1130580089584EA86BF06B607FEFDCF089584E881
S113059086BF06B607FEFDCF83B1089583B984E80C
S11305A086BF06B607FEFDCF089584E986BF089589
S11305B081B1887F089541E064E081E00E94BD013B
S11305C041E065E081E00E94BD0140E066E081E039
S11305D00E94BD0141E067E081E00E94BD018DB150
S11305E081608DB98DB182608DB98EB18E7F8EB9E7
S11305F08EB18E7F8EB98DB18F778DB98DB18F7D90
S11306008DB98DB1877F8DB98DB18B7F8DB98DB14A
S113061080618DB98DB180648DB9089540E064E046
S113062081E00E943C02089541E064E081E00E9480
S11306303C0208958FB9779BFECF08950F931F93C3
S1130640CF938C01C0E003C00E941A03CF5FF8016E
S1130650EC0FF11D80818111F7CFCF911F910F9184
S1130660089583B78F7783BF83B78F7B83BF83B7A7
S1130670877F83BF83B78F7E83BF83B78F7D83BF1D
S113068080E0089583B7816083BF83B78D7F83BF84
S113069083B7846083BF80E0089583B78E7F83BF70
S11306A083B78D7F83BF83B78B7F83BF80E008953B
S11306B00E94A0042FE632E143E851E40E94FF03C4
S11306C00E94710460935301709354018093550107
S11306D09093560112BE0E94420340E050E0BA01DA
S11306E00AC008B600FEFDCF88B7816088BF4F5F9F
S11306F05F4F6F4F7F4F8091530190915401A091B0
S11307005501B0915601481759076A077B0748F30A
S113071010925301109254011092550110925601F7
S11307200E944D0380E0089541E061E083E00E946F
S1130730BD0140E060E083E00E94BD0183E389B92C
S11307408AB188608AB98AB180618AB980B58068C3
S113075080BD80B5826080BD80B5846080BD8AB173
S11307608B7F8AB980B58F7E80BD80B58F7D80BD3B
S113077080B5877F80BD80B58F7B80BD8BB18D7F39
S11307808BB98BB18E7F8BB98AB18F778AB98AB1D5
S11307908F7B8AB98AB18F7D8AB908955D9BFECF1C
S11307A08CB908950F931F93CF938C01C0E003C0BD
S11307B00E94CE03CF5FF801EC0FF11D80818111FF
S11307C0F7CFCF911F910F9108955F9BFECF2CB16E
S11307D0FC01208308950F931F93CF938C01C0E0F5
S11307E003C00E94E503CF5FC8018C0F911DFC017B
S11307F020812111F6CFCF911F910F9108950E946E
S113080013040C94F4040E94ED0458F00E94E604CE
S113081040F029F45F3F29F00C94DD0451110C944D
S113082028050C94E3040E94050568F39923B1F3A9
S1130830552391F3951B550BBB27AA276217730702
S1130840840738F09F5F5F4F220F331F441FAA1F96
S1130850A9F335D00E2E3AF0E0E832D09150504052
S1130860E695001CCAF72BD0FE2F29D0660F771F00
S1130870881FBB1F261737074807AB07B0E809F0E6
S1130880BB0B802DBF01FF2793585F4F3AF09E3F6B
S1130890510578F00C94DD040C9428055F3FE4F3D3
S11308A0983ED4F3869577956795B795F7959F5FAE
S11308B0C9F7880F911D9695879597F90895E1E0FA
S11308C0660F771F881FBB1F621773078407BA0759
S11308D020F0621B730B840BBA0BEE1F88F7E095B4
S11308E008950E940D0588F09F5798F0B92F992715
S11308F0B751B0F0E1F0660F771F881F991F1AF007
S1130900BA95C9F714C0B13091F00E942705B1E03F
S113091008950C942705672F782F8827B85F39F03E
S1130920B93FCCF3869577956795B395D9F73EF49F
S113093090958095709561957F4F8F4F9F4F089547
S1130940E89409C097FB3EF4909580957095619565
S11309507F4F8F4F9F4F9923A9F0F92F96E9BB271B
S11309609395F695879577956795B795F111F8CF97
S1130970FAF4BB0F11F460FF1BC06F5F7F4F8F4F02
S11309809F4F16C0882311F096E911C0772321F0F8
S11309909EE8872F762F05C0662371F096E8862F90
S11309A070E060E02AF09A95660F771F881FDAF7E7
S11309B0880F9695879597F9089597F99F6780E82A
S11309C070E060E008959FEF80EC089500240A949D
S11309D01616170618060906089500240A94121616
S11309E01306140605060895092E0394000C11F449
S11309F0882352F0BB0F40F4BF2B11F460FF04C0F6
S1130A006F5F7F4F8F4F9F4F089557FD9058440F4E
S1130A10551F59F05F3F71F04795880F97FB991F59
S1130A2061F09F3F79F08795089512161306140616
S1130A30551FF2CF4695F1DF08C0161617061806A3
S1130A40991FF1CF86957105610508940895E8947E
S1130A50BB2766277727CB0197F90895FB01DC01B3
S1130A608D91019080190110D9F3990B0895F89490
S1050A70FFCFB2
S1130A723030303030303030303030303030303070
S1130A8230303000303030300030303030003030F0
S1130A923030303030303030303030303030303050
S1130AA2300030303030000D0A2020202020202059
S1130AB2202020796F752061726520696E20746828
S1130AC2652070726F6772616D6D696E67206D6FFC
S1130AD264650D0A00506C6561736520656E74650A
S1130AE27220636172642050414E0D0A000D0A5057
S1130AF26C6561736520656E746572206E6577201E
S1130B02342D6E756D626572732050494E0D0A0064
S1130B120D0A506C6561736520636F6E6669726D50
S1130B2220796F75722050494E0D0A000D0A4461F6
S1130B3274612072656365697665642073756363A5
S1130B4265737366756C6C790D0A000D0A50494E13
S1130B52206469646E2774206D6174636820210DBA
S1050B620A0083
S9030000FC
